{
  "contractName": "Minty",
  "abi": [
    {
      "inputs": [
        {
          "internalType": "string",
          "name": "tokenName",
          "type": "string"
        },
        {
          "internalType": "string",
          "name": "symbol",
          "type": "string"
        }
      ],
      "stateMutability": "nonpayable",
      "type": "constructor"
    },
    {
      "anonymous": false,
      "inputs": [
        {
          "indexed": true,
          "internalType": "address",
          "name": "owner",
          "type": "address"
        },
        {
          "indexed": true,
          "internalType": "address",
          "name": "approved",
          "type": "address"
        },
        {
          "indexed": true,
          "internalType": "uint256",
          "name": "tokenId",
          "type": "uint256"
        }
      ],
      "name": "Approval",
      "type": "event"
    },
    {
      "anonymous": false,
      "inputs": [
        {
          "indexed": true,
          "internalType": "address",
          "name": "owner",
          "type": "address"
        },
        {
          "indexed": true,
          "internalType": "address",
          "name": "operator",
          "type": "address"
        },
        {
          "indexed": false,
          "internalType": "bool",
          "name": "approved",
          "type": "bool"
        }
      ],
      "name": "ApprovalForAll",
      "type": "event"
    },
    {
      "anonymous": false,
      "inputs": [
        {
          "indexed": true,
          "internalType": "address",
          "name": "from",
          "type": "address"
        },
        {
          "indexed": true,
          "internalType": "address",
          "name": "to",
          "type": "address"
        },
        {
          "indexed": true,
          "internalType": "uint256",
          "name": "tokenId",
          "type": "uint256"
        }
      ],
      "name": "Transfer",
      "type": "event"
    },
    {
      "inputs": [
        {
          "internalType": "address",
          "name": "to",
          "type": "address"
        },
        {
          "internalType": "uint256",
          "name": "tokenId",
          "type": "uint256"
        }
      ],
      "name": "approve",
      "outputs": [],
      "stateMutability": "nonpayable",
      "type": "function"
    },
    {
      "inputs": [
        {
          "internalType": "address",
          "name": "owner",
          "type": "address"
        }
      ],
      "name": "balanceOf",
      "outputs": [
        {
          "internalType": "uint256",
          "name": "",
          "type": "uint256"
        }
      ],
      "stateMutability": "view",
      "type": "function",
      "constant": true
    },
    {
      "inputs": [
        {
          "internalType": "uint256",
          "name": "tokenId",
          "type": "uint256"
        }
      ],
      "name": "getApproved",
      "outputs": [
        {
          "internalType": "address",
          "name": "",
          "type": "address"
        }
      ],
      "stateMutability": "view",
      "type": "function",
      "constant": true
    },
    {
      "inputs": [
        {
          "internalType": "address",
          "name": "owner",
          "type": "address"
        },
        {
          "internalType": "address",
          "name": "operator",
          "type": "address"
        }
      ],
      "name": "isApprovedForAll",
      "outputs": [
        {
          "internalType": "bool",
          "name": "",
          "type": "bool"
        }
      ],
      "stateMutability": "view",
      "type": "function",
      "constant": true
    },
    {
      "inputs": [],
      "name": "name",
      "outputs": [
        {
          "internalType": "string",
          "name": "",
          "type": "string"
        }
      ],
      "stateMutability": "view",
      "type": "function",
      "constant": true
    },
    {
      "inputs": [
        {
          "internalType": "uint256",
          "name": "tokenId",
          "type": "uint256"
        }
      ],
      "name": "ownerOf",
      "outputs": [
        {
          "internalType": "address",
          "name": "",
          "type": "address"
        }
      ],
      "stateMutability": "view",
      "type": "function",
      "constant": true
    },
    {
      "inputs": [
        {
          "internalType": "address",
          "name": "from",
          "type": "address"
        },
        {
          "internalType": "address",
          "name": "to",
          "type": "address"
        },
        {
          "internalType": "uint256",
          "name": "tokenId",
          "type": "uint256"
        }
      ],
      "name": "safeTransferFrom",
      "outputs": [],
      "stateMutability": "nonpayable",
      "type": "function"
    },
    {
      "inputs": [
        {
          "internalType": "address",
          "name": "from",
          "type": "address"
        },
        {
          "internalType": "address",
          "name": "to",
          "type": "address"
        },
        {
          "internalType": "uint256",
          "name": "tokenId",
          "type": "uint256"
        },
        {
          "internalType": "bytes",
          "name": "data",
          "type": "bytes"
        }
      ],
      "name": "safeTransferFrom",
      "outputs": [],
      "stateMutability": "nonpayable",
      "type": "function"
    },
    {
      "inputs": [
        {
          "internalType": "address",
          "name": "operator",
          "type": "address"
        },
        {
          "internalType": "bool",
          "name": "approved",
          "type": "bool"
        }
      ],
      "name": "setApprovalForAll",
      "outputs": [],
      "stateMutability": "nonpayable",
      "type": "function"
    },
    {
      "inputs": [],
      "name": "symbol",
      "outputs": [
        {
          "internalType": "string",
          "name": "",
          "type": "string"
        }
      ],
      "stateMutability": "view",
      "type": "function",
      "constant": true
    },
    {
      "inputs": [
        {
          "internalType": "address",
          "name": "from",
          "type": "address"
        },
        {
          "internalType": "address",
          "name": "to",
          "type": "address"
        },
        {
          "internalType": "uint256",
          "name": "tokenId",
          "type": "uint256"
        }
      ],
      "name": "transferFrom",
      "outputs": [],
      "stateMutability": "nonpayable",
      "type": "function"
    },
    {
      "inputs": [
        {
          "internalType": "address",
          "name": "to",
          "type": "address"
        }
      ],
      "name": "mint",
      "outputs": [],
      "stateMutability": "nonpayable",
      "type": "function"
    },
    {
      "inputs": [
        {
          "internalType": "address",
          "name": "owner",
          "type": "address"
        },
        {
          "internalType": "string",
          "name": "metadataURI",
          "type": "string"
        }
      ],
      "name": "mintToken",
      "outputs": [],
      "stateMutability": "nonpayable",
      "type": "function"
    },
    {
      "inputs": [
        {
          "internalType": "bytes4",
          "name": "interfaceId",
          "type": "bytes4"
        }
      ],
      "name": "supportsInterface",
      "outputs": [
        {
          "internalType": "bool",
          "name": "",
          "type": "bool"
        }
      ],
      "stateMutability": "view",
      "type": "function",
      "constant": true
    },
    {
      "inputs": [
        {
          "internalType": "uint256",
          "name": "tokenId",
          "type": "uint256"
        }
      ],
      "name": "burn",
      "outputs": [],
      "stateMutability": "nonpayable",
      "type": "function"
    },
    {
      "inputs": [
        {
          "internalType": "uint256",
          "name": "tokenId",
          "type": "uint256"
        }
      ],
      "name": "tokenURI",
      "outputs": [
        {
          "internalType": "string",
          "name": "",
          "type": "string"
        }
      ],
      "stateMutability": "view",
      "type": "function",
      "constant": true
    }
  ],
  "bytecode": "0x60806040523480156200001157600080fd5b5060405162001b9238038062001b9283398101604081905262000034916200012b565b8181600062000044838262000224565b50600162000053828262000224565b5050505050620002f0565b634e487b7160e01b600052604160045260246000fd5b600082601f8301126200008657600080fd5b81516001600160401b0380821115620000a357620000a36200005e565b604051601f8301601f19908116603f01168101908282118183101715620000ce57620000ce6200005e565b81604052838152602092508683858801011115620000eb57600080fd5b600091505b838210156200010f5785820183015181830184015290820190620000f0565b83821115620001215760008385830101525b9695505050505050565b600080604083850312156200013f57600080fd5b82516001600160401b03808211156200015757600080fd5b620001658683870162000074565b935060208501519150808211156200017c57600080fd5b506200018b8582860162000074565b9150509250929050565b600181811c90821680620001aa57607f821691505b602082108103620001cb57634e487b7160e01b600052602260045260246000fd5b50919050565b601f8211156200021f57600081815260208120601f850160051c81016020861015620001fa5750805b601f850160051c820191505b818110156200021b5782815560010162000206565b5050505b505050565b81516001600160401b038111156200024057620002406200005e565b620002588162000251845462000195565b84620001d1565b602080601f831160018114620002905760008415620002775750858301515b600019600386901b1c1916600185901b1785556200021b565b600085815260208120601f198616915b82811015620002c157888601518255948401946001909101908401620002a0565b5085821015620002e05787850151600019600388901b60f8161c191681555b5050505050600190811b01905550565b61189280620003006000396000f3fe608060405234801561001057600080fd5b50600436106101005760003560e01c80636352211e11610097578063a22cb46511610066578063a22cb4651461021d578063b88d4fde14610230578063c87b56dd14610243578063e985e9c51461025657600080fd5b80636352211e146101ce5780636a627842146101e157806370a08231146101f457806395d89b411461021557600080fd5b806323b872dd116100d357806323b872dd146101825780633d02d0c91461019557806342842e0e146101a857806342966c68146101bb57600080fd5b806301ffc9a71461010557806306fdde031461012d578063081812fc14610142578063095ea7b31461016d575b600080fd5b610118610113366004611290565b610292565b60405190151581526020015b60405180910390f35b6101356102a3565b6040516101249190611305565b610155610150366004611318565b610335565b6040516001600160a01b039091168152602001610124565b61018061017b36600461134d565b61035c565b005b610180610190366004611377565b610476565b6101806101a336600461143f565b6104a8565b6101806101b6366004611377565b6104d7565b6101806101c9366004611318565b6104f2565b6101556101dc366004611318565b61056c565b6101806101ef3660046114a1565b6105cc565b6102076102023660046114a1565b6105e5565b604051908152602001610124565b61013561066b565b61018061022b3660046114bc565b61067a565b61018061023e3660046114f8565b610689565b610135610251366004611318565b6106c1565b610118610264366004611574565b6001600160a01b03918216600090815260056020908152604080832093909416825291909152205460ff1690565b600061029d826106cc565b92915050565b6060600080546102b2906115a7565b80601f01602080910402602001604051908101604052809291908181526020018280546102de906115a7565b801561032b5780601f106103005761010080835404028352916020019161032b565b820191906000526020600020905b81548152906001019060200180831161030e57829003601f168201915b5050505050905090565b60006103408261071c565b506000908152600460205260409020546001600160a01b031690565b60006103678261056c565b9050806001600160a01b0316836001600160a01b0316036103d95760405162461bcd60e51b815260206004820152602160248201527f4552433732313a20617070726f76616c20746f2063757272656e74206f776e656044820152603960f91b60648201526084015b60405180910390fd5b336001600160a01b03821614806103f557506103f58133610264565b6104675760405162461bcd60e51b815260206004820152603d60248201527f4552433732313a20617070726f76652063616c6c6572206973206e6f7420746f60448201527f6b656e206f776e6572206f7220617070726f76656420666f7220616c6c00000060648201526084016103d0565b610471838361077b565b505050565b610481335b826107e9565b61049d5760405162461bcd60e51b81526004016103d0906115e1565b610471838383610868565b60006104b360075490565b90506104bf83826109d9565b6104c981836109f3565b610471600780546001019055565b61047183838360405180602001604052806000815250610689565b6104fb3361047b565b6105605760405162461bcd60e51b815260206004820152603060248201527f4552433732314275726e61626c653a2063616c6c6572206973206e6f74206f7760448201526f1b995c881b9bdc88185c1c1c9bdd995960821b60648201526084016103d0565b61056981610a86565b50565b6000818152600260205260408120546001600160a01b03168061029d5760405162461bcd60e51b8152602060048201526018602482015277115490cdcc8c4e881a5b9d985b1a59081d1bdad95b88125160421b60448201526064016103d0565b61056981604051806020016040528060008152506104a8565b60006001600160a01b03821661064f5760405162461bcd60e51b815260206004820152602960248201527f4552433732313a2061646472657373207a65726f206973206e6f7420612076616044820152683634b21037bbb732b960b91b60648201526084016103d0565b506001600160a01b031660009081526003602052604090205490565b6060600180546102b2906115a7565b610685338383610a8f565b5050565b61069333836107e9565b6106af5760405162461bcd60e51b81526004016103d0906115e1565b6106bb84848484610b5d565b50505050565b606061029d82610b90565b60006001600160e01b031982166380ac58cd60e01b14806106fd57506001600160e01b03198216635b5e139f60e01b145b8061029d57506301ffc9a760e01b6001600160e01b031983161461029d565b6000818152600260205260409020546001600160a01b03166105695760405162461bcd60e51b8152602060048201526018602482015277115490cdcc8c4e881a5b9d985b1a59081d1bdad95b88125160421b60448201526064016103d0565b600081815260046020526040902080546001600160a01b0319166001600160a01b03841690811790915581906107b08261056c565b6001600160a01b03167f8c5be1e5ebec7d5bd14f71427d1e84f3dd0314c0f7b2291e5b200ac8c7c3b92560405160405180910390a45050565b6000806107f58361056c565b9050806001600160a01b0316846001600160a01b0316148061083c57506001600160a01b0380821660009081526005602090815260408083209388168352929052205460ff165b806108605750836001600160a01b031661085584610335565b6001600160a01b0316145b949350505050565b826001600160a01b031661087b8261056c565b6001600160a01b0316146108a15760405162461bcd60e51b81526004016103d09061162e565b6001600160a01b0382166109035760405162461bcd60e51b8152602060048201526024808201527f4552433732313a207472616e7366657220746f20746865207a65726f206164646044820152637265737360e01b60648201526084016103d0565b6109108383836001610c98565b826001600160a01b03166109238261056c565b6001600160a01b0316146109495760405162461bcd60e51b81526004016103d09061162e565b600081815260046020908152604080832080546001600160a01b03199081169091556001600160a01b0387811680865260038552838620805460001901905590871680865283862080546001019055868652600290945282852080549092168417909155905184937fddf252ad1be2c89b69c2b068fc378daa952ba7f163c4a11628f55a4df523b3ef91a4505050565b610685828260405180602001604052806000815250610c9d565b6000828152600260205260409020546001600160a01b0316610a6e5760405162461bcd60e51b815260206004820152602e60248201527f45524337323155524953746f726167653a2055524920736574206f66206e6f6e60448201526d32bc34b9ba32b73a103a37b5b2b760911b60648201526084016103d0565b600082815260066020526040902061047182826116c1565b61056981610cd0565b816001600160a01b0316836001600160a01b031603610af05760405162461bcd60e51b815260206004820152601960248201527f4552433732313a20617070726f766520746f2063616c6c65720000000000000060448201526064016103d0565b6001600160a01b03838116600081815260056020908152604080832094871680845294825291829020805460ff191686151590811790915591519182527f17307eab39ab6107e8899845ad3d59bd9653f200f220920489ca2b5937696c31910160405180910390a3505050565b610b68848484610868565b610b7484848484610d10565b6106bb5760405162461bcd60e51b81526004016103d090611781565b6060610b9b8261071c565b60008281526006602052604081208054610bb4906115a7565b80601f0160208091040260200160405190810160405280929190818152602001828054610be0906115a7565b8015610c2d5780601f10610c0257610100808354040283529160200191610c2d565b820191906000526020600020905b815481529060010190602001808311610c1057829003601f168201915b505050505090506000610c4b60408051602081019091526000815290565b90508051600003610c5d575092915050565b815115610c8f578082604051602001610c779291906117d3565b60405160208183030381529060405292505050919050565b61086084610e11565b6106bb565b610ca78383610e85565b610cb46000848484610d10565b6104715760405162461bcd60e51b81526004016103d090611781565b610cd98161101e565b60008181526006602052604090208054610cf2906115a7565b1590506105695760008181526006602052604081206105699161122c565b60006001600160a01b0384163b15610e0657604051630a85bd0160e11b81526001600160a01b0385169063150b7a0290610d54903390899088908890600401611802565b6020604051808303816000875af1925050508015610d8f575060408051601f3d908101601f19168201909252610d8c9181019061183f565b60015b610dec573d808015610dbd576040519150601f19603f3d011682016040523d82523d6000602084013e610dc2565b606091505b508051600003610de45760405162461bcd60e51b81526004016103d090611781565b805181602001fd5b6001600160e01b031916630a85bd0160e11b149050610860565b506001949350505050565b6060610e1c8261071c565b6000610e3360408051602081019091526000815290565b90506000815111610e535760405180602001604052806000815250610e7e565b80610e5d846110c1565b604051602001610e6e9291906117d3565b6040516020818303038152906040525b9392505050565b6001600160a01b038216610edb5760405162461bcd60e51b815260206004820181905260248201527f4552433732313a206d696e7420746f20746865207a65726f206164647265737360448201526064016103d0565b6000818152600260205260409020546001600160a01b031615610f405760405162461bcd60e51b815260206004820152601c60248201527f4552433732313a20746f6b656e20616c7265616479206d696e7465640000000060448201526064016103d0565b610f4e600083836001610c98565b6000818152600260205260409020546001600160a01b031615610fb35760405162461bcd60e51b815260206004820152601c60248201527f4552433732313a20746f6b656e20616c7265616479206d696e7465640000000060448201526064016103d0565b6001600160a01b038216600081815260036020908152604080832080546001019055848352600290915280822080546001600160a01b0319168417905551839291907fddf252ad1be2c89b69c2b068fc378daa952ba7f163c4a11628f55a4df523b3ef908290a45050565b60006110298261056c565b9050611039816000846001610c98565b6110428261056c565b600083815260046020908152604080832080546001600160a01b03199081169091556001600160a01b0385168085526003845282852080546000190190558785526002909352818420805490911690555192935084927fddf252ad1be2c89b69c2b068fc378daa952ba7f163c4a11628f55a4df523b3ef908390a45050565b606060006110ce83611154565b600101905060008167ffffffffffffffff8111156110ee576110ee6113b3565b6040519080825280601f01601f191660200182016040528015611118576020820181803683370190505b5090508181016020015b600019016f181899199a1a9b1b9c1cb0b131b232b360811b600a86061a8153600a850494508461112257509392505050565b60008072184f03e93ff9f4daa797ed6e38ed64bf6a1f0160401b83106111935772184f03e93ff9f4daa797ed6e38ed64bf6a1f0160401b830492506040015b6d04ee2d6d415b85acef810000000083106111bf576d04ee2d6d415b85acef8100000000830492506020015b662386f26fc1000083106111dd57662386f26fc10000830492506010015b6305f5e10083106111f5576305f5e100830492506008015b612710831061120957612710830492506004015b6064831061121b576064830492506002015b600a831061029d5760010192915050565b508054611238906115a7565b6000825580601f10611248575050565b601f01602090049060005260206000209081019061056991905b808211156112765760008155600101611262565b5090565b6001600160e01b03198116811461056957600080fd5b6000602082840312156112a257600080fd5b8135610e7e8161127a565b60005b838110156112c85781810151838201526020016112b0565b838111156106bb5750506000910152565b600081518084526112f18160208601602086016112ad565b601f01601f19169290920160200192915050565b602081526000610e7e60208301846112d9565b60006020828403121561132a57600080fd5b5035919050565b80356001600160a01b038116811461134857600080fd5b919050565b6000806040838503121561136057600080fd5b61136983611331565b946020939093013593505050565b60008060006060848603121561138c57600080fd5b61139584611331565b92506113a360208501611331565b9150604084013590509250925092565b634e487b7160e01b600052604160045260246000fd5b600067ffffffffffffffff808411156113e4576113e46113b3565b604051601f8501601f19908116603f0116810190828211818310171561140c5761140c6113b3565b8160405280935085815286868601111561142557600080fd5b858560208301376000602087830101525050509392505050565b6000806040838503121561145257600080fd5b61145b83611331565b9150602083013567ffffffffffffffff81111561147757600080fd5b8301601f8101851361148857600080fd5b611497858235602084016113c9565b9150509250929050565b6000602082840312156114b357600080fd5b610e7e82611331565b600080604083850312156114cf57600080fd5b6114d883611331565b9150602083013580151581146114ed57600080fd5b809150509250929050565b6000806000806080858703121561150e57600080fd5b61151785611331565b935061152560208601611331565b925060408501359150606085013567ffffffffffffffff81111561154857600080fd5b8501601f8101871361155957600080fd5b611568878235602084016113c9565b91505092959194509250565b6000806040838503121561158757600080fd5b61159083611331565b915061159e60208401611331565b90509250929050565b600181811c908216806115bb57607f821691505b6020821081036115db57634e487b7160e01b600052602260045260246000fd5b50919050565b6020808252602d908201527f4552433732313a2063616c6c6572206973206e6f7420746f6b656e206f776e6560408201526c1c881bdc88185c1c1c9bdd9959609a1b606082015260800190565b60208082526025908201527f4552433732313a207472616e736665722066726f6d20696e636f72726563742060408201526437bbb732b960d91b606082015260800190565b601f82111561047157600081815260208120601f850160051c8101602086101561169a5750805b601f850160051c820191505b818110156116b9578281556001016116a6565b505050505050565b815167ffffffffffffffff8111156116db576116db6113b3565b6116ef816116e984546115a7565b84611673565b602080601f831160018114611724576000841561170c5750858301515b600019600386901b1c1916600185901b1785556116b9565b600085815260208120601f198616915b8281101561175357888601518255948401946001909101908401611734565b50858210156117715787850151600019600388901b60f8161c191681555b5050505050600190811b01905550565b60208082526032908201527f4552433732313a207472616e7366657220746f206e6f6e20455243373231526560408201527131b2b4bb32b91034b6b83632b6b2b73a32b960711b606082015260800190565b600083516117e58184602088016112ad565b8351908301906117f98183602088016112ad565b01949350505050565b6001600160a01b0385811682528416602082015260408101839052608060608201819052600090611835908301846112d9565b9695505050505050565b60006020828403121561185157600080fd5b8151610e7e8161127a56fea2646970667358221220ed10a804937438f138a95535eba8d74d817e669afdd7b11251104566c296c2a164736f6c634300080f0033",
  "immutableReferences": {},
  "source": "//SPDX-License-Identifier: MIT\npragma solidity ^0.8.1;\n\n// import \"hardhat/console.sol\";\nimport \"@openzeppelin/contracts/utils/Counters.sol\";\nimport \"@openzeppelin/contracts/token/ERC721/ERC721.sol\";\nimport \"@openzeppelin/contracts/token/ERC721/extensions/ERC721URIStorage.sol\";\n\ncontract Minty is ERC721, ERC721URIStorage {\n\n    using Counters for Counters.Counter;\n    Counters.Counter private _tokenIdTracker;\n\n    constructor(string memory tokenName, string memory symbol) ERC721(tokenName, symbol) {}\n\n    /**\n     * @dev Creates a new token for `to`. Its token ID will be automatically\n     * assigned (and available on the emitted {IERC721-Transfer} event), and the token\n     * URI autogenerated based on the base URI passed at construction.\n     *\n     * See {ERC721-_mint}.\n     *\n     */\n    function mint(address to) public virtual {\n        mintToken(to, \"\");\n    }\n\n    function mintToken(address owner, string memory metadataURI) public {\n        uint256 id = _tokenIdTracker.current();\n        super._safeMint(owner, id);\n        super._setTokenURI(id, metadataURI);\n        _tokenIdTracker.increment();\n    }\n\n    function _baseURI() internal view virtual override returns (string memory) {\n        return \"\";\n    }\n\n    function _beforeTokenTransfer(address from, address to, uint256 firstTokenId, uint256 batchSize) internal virtual override(ERC721) {\n        super._beforeTokenTransfer(from, to, firstTokenId, batchSize);\n    }\n\n    /**\n     * @dev See {IERC165-supportsInterface}.\n     */\n    function supportsInterface(bytes4 interfaceId) public view virtual override returns (bool) {\n        return super.supportsInterface(interfaceId);\n    }\n\n    /**\n     * @dev Burns `tokenId`. See {ERC721-_burn}.\n     *\n     * Requirements:\n     *\n     * - The caller must own `tokenId` or be an approved operator.\n     */\n    function burn(uint256 tokenId) public virtual {\n        //solhint-disable-next-line max-line-length\n        require(_isApprovedOrOwner(_msgSender(), tokenId), \"ERC721Burnable: caller is not owner nor approved\");\n        _burn(tokenId);\n    }\n\n    function _burn(uint256 tokenId) internal virtual override(ERC721, ERC721URIStorage) {\n        super._burn(tokenId);\n    }\n\n    function tokenURI(uint256 tokenId) public view virtual override(ERC721, ERC721URIStorage) returns (string memory) {\n        return super.tokenURI(tokenId);\n    }\n\n\n}\n",
  "sourcePath": "/home/skeetzo/Projects/minty/src/contracts/Minty.sol",
  "compiler": {
    "name": "solc",
    "version": "0.8.15+commit.e14f2714.Emscripten.clang"
  },
  "schemaVersion": "3.4.13",
  "updatedAt": "2023-05-13T15:32:16.574Z",
  "networkType": "ethereum",
  "devdoc": {
    "kind": "dev",
    "methods": {
      "approve(address,uint256)": {
        "details": "See {IERC721-approve}."
      },
      "balanceOf(address)": {
        "details": "See {IERC721-balanceOf}."
      },
      "burn(uint256)": {
        "details": "Burns `tokenId`. See {ERC721-_burn}. Requirements: - The caller must own `tokenId` or be an approved operator."
      },
      "getApproved(uint256)": {
        "details": "See {IERC721-getApproved}."
      },
      "isApprovedForAll(address,address)": {
        "details": "See {IERC721-isApprovedForAll}."
      },
      "mint(address)": {
        "details": "Creates a new token for `to`. Its token ID will be automatically assigned (and available on the emitted {IERC721-Transfer} event), and the token URI autogenerated based on the base URI passed at construction. See {ERC721-_mint}."
      },
      "name()": {
        "details": "See {IERC721Metadata-name}."
      },
      "ownerOf(uint256)": {
        "details": "See {IERC721-ownerOf}."
      },
      "safeTransferFrom(address,address,uint256)": {
        "details": "See {IERC721-safeTransferFrom}."
      },
      "safeTransferFrom(address,address,uint256,bytes)": {
        "details": "See {IERC721-safeTransferFrom}."
      },
      "setApprovalForAll(address,bool)": {
        "details": "See {IERC721-setApprovalForAll}."
      },
      "supportsInterface(bytes4)": {
        "details": "See {IERC165-supportsInterface}."
      },
      "symbol()": {
        "details": "See {IERC721Metadata-symbol}."
      },
      "transferFrom(address,address,uint256)": {
        "details": "See {IERC721-transferFrom}."
      }
    },
    "version": 1
  },
  "userdoc": {
    "kind": "user",
    "methods": {},
    "version": 1
  }
}