{
  "contractName": "Minty",
  "abi": [
    {
      "inputs": [
        {
          "internalType": "string",
          "name": "tokenName",
          "type": "string"
        },
        {
          "internalType": "string",
          "name": "symbol",
          "type": "string"
        }
      ],
      "stateMutability": "nonpayable",
      "type": "constructor"
    },
    {
      "anonymous": false,
      "inputs": [
        {
          "indexed": true,
          "internalType": "address",
          "name": "owner",
          "type": "address"
        },
        {
          "indexed": true,
          "internalType": "address",
          "name": "approved",
          "type": "address"
        },
        {
          "indexed": true,
          "internalType": "uint256",
          "name": "tokenId",
          "type": "uint256"
        }
      ],
      "name": "Approval",
      "type": "event"
    },
    {
      "anonymous": false,
      "inputs": [
        {
          "indexed": true,
          "internalType": "address",
          "name": "owner",
          "type": "address"
        },
        {
          "indexed": true,
          "internalType": "address",
          "name": "operator",
          "type": "address"
        },
        {
          "indexed": false,
          "internalType": "bool",
          "name": "approved",
          "type": "bool"
        }
      ],
      "name": "ApprovalForAll",
      "type": "event"
    },
    {
      "anonymous": false,
      "inputs": [
        {
          "indexed": true,
          "internalType": "address",
          "name": "from",
          "type": "address"
        },
        {
          "indexed": true,
          "internalType": "address",
          "name": "to",
          "type": "address"
        },
        {
          "indexed": true,
          "internalType": "uint256",
          "name": "tokenId",
          "type": "uint256"
        }
      ],
      "name": "Transfer",
      "type": "event"
    },
    {
      "inputs": [
        {
          "internalType": "address",
          "name": "to",
          "type": "address"
        },
        {
          "internalType": "uint256",
          "name": "tokenId",
          "type": "uint256"
        }
      ],
      "name": "approve",
      "outputs": [],
      "stateMutability": "nonpayable",
      "type": "function"
    },
    {
      "inputs": [
        {
          "internalType": "address",
          "name": "owner",
          "type": "address"
        }
      ],
      "name": "balanceOf",
      "outputs": [
        {
          "internalType": "uint256",
          "name": "",
          "type": "uint256"
        }
      ],
      "stateMutability": "view",
      "type": "function",
      "constant": true
    },
    {
      "inputs": [
        {
          "internalType": "uint256",
          "name": "tokenId",
          "type": "uint256"
        }
      ],
      "name": "getApproved",
      "outputs": [
        {
          "internalType": "address",
          "name": "",
          "type": "address"
        }
      ],
      "stateMutability": "view",
      "type": "function",
      "constant": true
    },
    {
      "inputs": [
        {
          "internalType": "address",
          "name": "owner",
          "type": "address"
        },
        {
          "internalType": "address",
          "name": "operator",
          "type": "address"
        }
      ],
      "name": "isApprovedForAll",
      "outputs": [
        {
          "internalType": "bool",
          "name": "",
          "type": "bool"
        }
      ],
      "stateMutability": "view",
      "type": "function",
      "constant": true
    },
    {
      "inputs": [],
      "name": "name",
      "outputs": [
        {
          "internalType": "string",
          "name": "",
          "type": "string"
        }
      ],
      "stateMutability": "view",
      "type": "function",
      "constant": true
    },
    {
      "inputs": [
        {
          "internalType": "uint256",
          "name": "tokenId",
          "type": "uint256"
        }
      ],
      "name": "ownerOf",
      "outputs": [
        {
          "internalType": "address",
          "name": "",
          "type": "address"
        }
      ],
      "stateMutability": "view",
      "type": "function",
      "constant": true
    },
    {
      "inputs": [
        {
          "internalType": "address",
          "name": "from",
          "type": "address"
        },
        {
          "internalType": "address",
          "name": "to",
          "type": "address"
        },
        {
          "internalType": "uint256",
          "name": "tokenId",
          "type": "uint256"
        }
      ],
      "name": "safeTransferFrom",
      "outputs": [],
      "stateMutability": "nonpayable",
      "type": "function"
    },
    {
      "inputs": [
        {
          "internalType": "address",
          "name": "from",
          "type": "address"
        },
        {
          "internalType": "address",
          "name": "to",
          "type": "address"
        },
        {
          "internalType": "uint256",
          "name": "tokenId",
          "type": "uint256"
        },
        {
          "internalType": "bytes",
          "name": "_data",
          "type": "bytes"
        }
      ],
      "name": "safeTransferFrom",
      "outputs": [],
      "stateMutability": "nonpayable",
      "type": "function"
    },
    {
      "inputs": [
        {
          "internalType": "address",
          "name": "operator",
          "type": "address"
        },
        {
          "internalType": "bool",
          "name": "approved",
          "type": "bool"
        }
      ],
      "name": "setApprovalForAll",
      "outputs": [],
      "stateMutability": "nonpayable",
      "type": "function"
    },
    {
      "inputs": [],
      "name": "symbol",
      "outputs": [
        {
          "internalType": "string",
          "name": "",
          "type": "string"
        }
      ],
      "stateMutability": "view",
      "type": "function",
      "constant": true
    },
    {
      "inputs": [
        {
          "internalType": "address",
          "name": "from",
          "type": "address"
        },
        {
          "internalType": "address",
          "name": "to",
          "type": "address"
        },
        {
          "internalType": "uint256",
          "name": "tokenId",
          "type": "uint256"
        }
      ],
      "name": "transferFrom",
      "outputs": [],
      "stateMutability": "nonpayable",
      "type": "function"
    },
    {
      "inputs": [
        {
          "internalType": "address",
          "name": "to",
          "type": "address"
        }
      ],
      "name": "mint",
      "outputs": [],
      "stateMutability": "nonpayable",
      "type": "function"
    },
    {
      "inputs": [
        {
          "internalType": "address",
          "name": "owner",
          "type": "address"
        },
        {
          "internalType": "string",
          "name": "metadataURI",
          "type": "string"
        }
      ],
      "name": "mintToken",
      "outputs": [],
      "stateMutability": "nonpayable",
      "type": "function"
    },
    {
      "inputs": [
        {
          "internalType": "bytes4",
          "name": "interfaceId",
          "type": "bytes4"
        }
      ],
      "name": "supportsInterface",
      "outputs": [
        {
          "internalType": "bool",
          "name": "",
          "type": "bool"
        }
      ],
      "stateMutability": "view",
      "type": "function",
      "constant": true
    },
    {
      "inputs": [
        {
          "internalType": "uint256",
          "name": "tokenId",
          "type": "uint256"
        }
      ],
      "name": "burn",
      "outputs": [],
      "stateMutability": "nonpayable",
      "type": "function"
    },
    {
      "inputs": [
        {
          "internalType": "uint256",
          "name": "tokenId",
          "type": "uint256"
        }
      ],
      "name": "tokenURI",
      "outputs": [
        {
          "internalType": "string",
          "name": "",
          "type": "string"
        }
      ],
      "stateMutability": "view",
      "type": "function",
      "constant": true
    }
  ],
  "bytecode": "0x60806040523480156200001157600080fd5b5060405162001cae38038062001cae83398101604081905262000034916200012b565b8181600062000044838262000224565b50600162000053828262000224565b5050505050620002f0565b634e487b7160e01b600052604160045260246000fd5b600082601f8301126200008657600080fd5b81516001600160401b0380821115620000a357620000a36200005e565b604051601f8301601f19908116603f01168101908282118183101715620000ce57620000ce6200005e565b81604052838152602092508683858801011115620000eb57600080fd5b600091505b838210156200010f5785820183015181830184015290820190620000f0565b83821115620001215760008385830101525b9695505050505050565b600080604083850312156200013f57600080fd5b82516001600160401b03808211156200015757600080fd5b620001658683870162000074565b935060208501519150808211156200017c57600080fd5b506200018b8582860162000074565b9150509250929050565b600181811c90821680620001aa57607f821691505b602082108103620001cb57634e487b7160e01b600052602260045260246000fd5b50919050565b601f8211156200021f57600081815260208120601f850160051c81016020861015620001fa5750805b601f850160051c820191505b818110156200021b5782815560010162000206565b5050505b505050565b81516001600160401b038111156200024057620002406200005e565b620002588162000251845462000195565b84620001d1565b602080601f831160018114620002905760008415620002775750858301515b600019600386901b1c1916600185901b1785556200021b565b600085815260208120601f198616915b82811015620002c157888601518255948401946001909101908401620002a0565b5085821015620002e05787850151600019600388901b60f8161c191681555b5050505050600190811b01905550565b6119ae80620003006000396000f3fe608060405234801561001057600080fd5b50600436106101005760003560e01c80636352211e11610097578063a22cb46511610066578063a22cb4651461021d578063b88d4fde14610230578063c87b56dd14610243578063e985e9c51461025657600080fd5b80636352211e146101ce5780636a627842146101e157806370a08231146101f457806395d89b411461021557600080fd5b806323b872dd116100d357806323b872dd146101825780633d02d0c91461019557806342842e0e146101a857806342966c68146101bb57600080fd5b806301ffc9a71461010557806306fdde031461012d578063081812fc14610142578063095ea7b31461016d575b600080fd5b61011861011336600461133b565b610292565b60405190151581526020015b60405180910390f35b6101356102a3565b60405161012491906113b0565b6101556101503660046113c3565b610335565b6040516001600160a01b039091168152602001610124565b61018061017b3660046113f8565b6103c2565b005b610180610190366004611422565b6104d7565b6101806101a33660046114ea565b610509565b6101806101b6366004611422565b610538565b6101806101c93660046113c3565b610553565b6101556101dc3660046113c3565b6105cd565b6101806101ef36600461154c565b610644565b61020761020236600461154c565b61065d565b604051908152602001610124565b6101356106e4565b61018061022b366004611567565b6106f3565b61018061023e3660046115a3565b610702565b6101356102513660046113c3565b61073a565b61011861026436600461161f565b6001600160a01b03918216600090815260056020908152604080832093909416825291909152205460ff1690565b600061029d82610745565b92915050565b6060600080546102b290611652565b80601f01602080910402602001604051908101604052809291908181526020018280546102de90611652565b801561032b5780601f106103005761010080835404028352916020019161032b565b820191906000526020600020905b81548152906001019060200180831161030e57829003601f168201915b5050505050905090565b600061034082610795565b6103a65760405162461bcd60e51b815260206004820152602c60248201527f4552433732313a20617070726f76656420717565727920666f72206e6f6e657860448201526b34b9ba32b73a103a37b5b2b760a11b60648201526084015b60405180910390fd5b506000908152600460205260409020546001600160a01b031690565b60006103cd826105cd565b9050806001600160a01b0316836001600160a01b03160361043a5760405162461bcd60e51b815260206004820152602160248201527f4552433732313a20617070726f76616c20746f2063757272656e74206f776e656044820152603960f91b606482015260840161039d565b336001600160a01b038216148061045657506104568133610264565b6104c85760405162461bcd60e51b815260206004820152603860248201527f4552433732313a20617070726f76652063616c6c6572206973206e6f74206f7760448201527f6e6572206e6f7220617070726f76656420666f7220616c6c0000000000000000606482015260840161039d565b6104d283836107b2565b505050565b6104e2335b82610820565b6104fe5760405162461bcd60e51b815260040161039d9061168c565b6104d283838361090a565b600061051460075490565b90506105208382610aa6565b61052a8183610ac0565b6104d2600780546001019055565b6104d283838360405180602001604052806000815250610702565b61055c336104dc565b6105c15760405162461bcd60e51b815260206004820152603060248201527f4552433732314275726e61626c653a2063616c6c6572206973206e6f74206f7760448201526f1b995c881b9bdc88185c1c1c9bdd995960821b606482015260840161039d565b6105ca81610b44565b50565b6000818152600260205260408120546001600160a01b03168061029d5760405162461bcd60e51b815260206004820152602960248201527f4552433732313a206f776e657220717565727920666f72206e6f6e657869737460448201526832b73a103a37b5b2b760b91b606482015260840161039d565b6105ca8160405180602001604052806000815250610509565b60006001600160a01b0382166106c85760405162461bcd60e51b815260206004820152602a60248201527f4552433732313a2062616c616e636520717565727920666f7220746865207a65604482015269726f206164647265737360b01b606482015260840161039d565b506001600160a01b031660009081526003602052604090205490565b6060600180546102b290611652565b6106fe338383610b4d565b5050565b61070c3383610820565b6107285760405162461bcd60e51b815260040161039d9061168c565b61073484848484610c1b565b50505050565b606061029d82610c4e565b60006001600160e01b031982166380ac58cd60e01b148061077657506001600160e01b03198216635b5e139f60e01b145b8061029d57506301ffc9a760e01b6001600160e01b031983161461029d565b6000908152600260205260409020546001600160a01b0316151590565b600081815260046020526040902080546001600160a01b0319166001600160a01b03841690811790915581906107e7826105cd565b6001600160a01b03167f8c5be1e5ebec7d5bd14f71427d1e84f3dd0314c0f7b2291e5b200ac8c7c3b92560405160405180910390a45050565b600061082b82610795565b61088c5760405162461bcd60e51b815260206004820152602c60248201527f4552433732313a206f70657261746f7220717565727920666f72206e6f6e657860448201526b34b9ba32b73a103a37b5b2b760a11b606482015260840161039d565b6000610897836105cd565b9050806001600160a01b0316846001600160a01b031614806108de57506001600160a01b0380821660009081526005602090815260408083209388168352929052205460ff165b806109025750836001600160a01b03166108f784610335565b6001600160a01b0316145b949350505050565b826001600160a01b031661091d826105cd565b6001600160a01b0316146109815760405162461bcd60e51b815260206004820152602560248201527f4552433732313a207472616e736665722066726f6d20696e636f72726563742060448201526437bbb732b960d91b606482015260840161039d565b6001600160a01b0382166109e35760405162461bcd60e51b8152602060048201526024808201527f4552433732313a207472616e7366657220746f20746865207a65726f206164646044820152637265737360e01b606482015260840161039d565b6109ee6000826107b2565b6001600160a01b0383166000908152600360205260408120805460019290610a179084906116f3565b90915550506001600160a01b0382166000908152600360205260408120805460019290610a4590849061170a565b909155505060008181526002602052604080822080546001600160a01b0319166001600160a01b0386811691821790925591518493918716917fddf252ad1be2c89b69c2b068fc378daa952ba7f163c4a11628f55a4df523b3ef91a4505050565b6106fe828260405180602001604052806000815250610dbc565b610ac982610795565b610b2c5760405162461bcd60e51b815260206004820152602e60248201527f45524337323155524953746f726167653a2055524920736574206f66206e6f6e60448201526d32bc34b9ba32b73a103a37b5b2b760911b606482015260840161039d565b60008281526006602052604090206104d28282611770565b6105ca81610def565b816001600160a01b0316836001600160a01b031603610bae5760405162461bcd60e51b815260206004820152601960248201527f4552433732313a20617070726f766520746f2063616c6c657200000000000000604482015260640161039d565b6001600160a01b03838116600081815260056020908152604080832094871680845294825291829020805460ff191686151590811790915591519182527f17307eab39ab6107e8899845ad3d59bd9653f200f220920489ca2b5937696c31910160405180910390a3505050565b610c2684848461090a565b610c3284848484610e2f565b6107345760405162461bcd60e51b815260040161039d90611830565b6060610c5982610795565b610cbf5760405162461bcd60e51b815260206004820152603160248201527f45524337323155524953746f726167653a2055524920717565727920666f72206044820152703737b732bc34b9ba32b73a103a37b5b2b760791b606482015260840161039d565b60008281526006602052604081208054610cd890611652565b80601f0160208091040260200160405190810160405280929190818152602001828054610d0490611652565b8015610d515780601f10610d2657610100808354040283529160200191610d51565b820191906000526020600020905b815481529060010190602001808311610d3457829003601f168201915b505050505090506000610d6f60408051602081019091526000815290565b90508051600003610d81575092915050565b815115610db3578082604051602001610d9b929190611882565b60405160208183030381529060405292505050919050565b61090284610f30565b610dc68383611008565b610dd36000848484610e2f565b6104d25760405162461bcd60e51b815260040161039d90611830565b610df88161113b565b60008181526006602052604090208054610e1190611652565b1590506105ca5760008181526006602052604081206105ca916112d7565b60006001600160a01b0384163b15610f2557604051630a85bd0160e11b81526001600160a01b0385169063150b7a0290610e739033908990889088906004016118b1565b6020604051808303816000875af1925050508015610eae575060408051601f3d908101601f19168201909252610eab918101906118ee565b60015b610f0b573d808015610edc576040519150601f19603f3d011682016040523d82523d6000602084013e610ee1565b606091505b508051600003610f035760405162461bcd60e51b815260040161039d90611830565b805181602001fd5b6001600160e01b031916630a85bd0160e11b149050610902565b506001949350505050565b6060610f3b82610795565b610f9f5760405162461bcd60e51b815260206004820152602f60248201527f4552433732314d657461646174613a2055524920717565727920666f72206e6f60448201526e3732bc34b9ba32b73a103a37b5b2b760891b606482015260840161039d565b6000610fb660408051602081019091526000815290565b90506000815111610fd65760405180602001604052806000815250611001565b80610fe0846111d6565b604051602001610ff1929190611882565b6040516020818303038152906040525b9392505050565b6001600160a01b03821661105e5760405162461bcd60e51b815260206004820181905260248201527f4552433732313a206d696e7420746f20746865207a65726f2061646472657373604482015260640161039d565b61106781610795565b156110b45760405162461bcd60e51b815260206004820152601c60248201527f4552433732313a20746f6b656e20616c7265616479206d696e74656400000000604482015260640161039d565b6001600160a01b03821660009081526003602052604081208054600192906110dd90849061170a565b909155505060008181526002602052604080822080546001600160a01b0319166001600160a01b03861690811790915590518392907fddf252ad1be2c89b69c2b068fc378daa952ba7f163c4a11628f55a4df523b3ef908290a45050565b6000611146826105cd565b90506111536000836107b2565b6001600160a01b038116600090815260036020526040812080546001929061117c9084906116f3565b909155505060008281526002602052604080822080546001600160a01b0319169055518391906001600160a01b038416907fddf252ad1be2c89b69c2b068fc378daa952ba7f163c4a11628f55a4df523b3ef908390a45050565b6060816000036111fd5750506040805180820190915260018152600360fc1b602082015290565b8160005b811561122757806112118161190b565b91506112209050600a8361193a565b9150611201565b60008167ffffffffffffffff8111156112425761124261145e565b6040519080825280601f01601f19166020018201604052801561126c576020820181803683370190505b5090505b8415610902576112816001836116f3565b915061128e600a8661194e565b61129990603061170a565b60f81b8183815181106112ae576112ae611962565b60200101906001600160f81b031916908160001a9053506112d0600a8661193a565b9450611270565b5080546112e390611652565b6000825580601f106112f3575050565b601f0160209004906000526020600020908101906105ca91905b80821115611321576000815560010161130d565b5090565b6001600160e01b0319811681146105ca57600080fd5b60006020828403121561134d57600080fd5b813561100181611325565b60005b8381101561137357818101518382015260200161135b565b838111156107345750506000910152565b6000815180845261139c816020860160208601611358565b601f01601f19169290920160200192915050565b6020815260006110016020830184611384565b6000602082840312156113d557600080fd5b5035919050565b80356001600160a01b03811681146113f357600080fd5b919050565b6000806040838503121561140b57600080fd5b611414836113dc565b946020939093013593505050565b60008060006060848603121561143757600080fd5b611440846113dc565b925061144e602085016113dc565b9150604084013590509250925092565b634e487b7160e01b600052604160045260246000fd5b600067ffffffffffffffff8084111561148f5761148f61145e565b604051601f8501601f19908116603f011681019082821181831017156114b7576114b761145e565b816040528093508581528686860111156114d057600080fd5b858560208301376000602087830101525050509392505050565b600080604083850312156114fd57600080fd5b611506836113dc565b9150602083013567ffffffffffffffff81111561152257600080fd5b8301601f8101851361153357600080fd5b61154285823560208401611474565b9150509250929050565b60006020828403121561155e57600080fd5b611001826113dc565b6000806040838503121561157a57600080fd5b611583836113dc565b91506020830135801515811461159857600080fd5b809150509250929050565b600080600080608085870312156115b957600080fd5b6115c2856113dc565b93506115d0602086016113dc565b925060408501359150606085013567ffffffffffffffff8111156115f357600080fd5b8501601f8101871361160457600080fd5b61161387823560208401611474565b91505092959194509250565b6000806040838503121561163257600080fd5b61163b836113dc565b9150611649602084016113dc565b90509250929050565b600181811c9082168061166657607f821691505b60208210810361168657634e487b7160e01b600052602260045260246000fd5b50919050565b60208082526031908201527f4552433732313a207472616e736665722063616c6c6572206973206e6f74206f6040820152701ddb995c881b9bdc88185c1c1c9bdd9959607a1b606082015260800190565b634e487b7160e01b600052601160045260246000fd5b600082821015611705576117056116dd565b500390565b6000821982111561171d5761171d6116dd565b500190565b601f8211156104d257600081815260208120601f850160051c810160208610156117495750805b601f850160051c820191505b8181101561176857828155600101611755565b505050505050565b815167ffffffffffffffff81111561178a5761178a61145e565b61179e816117988454611652565b84611722565b602080601f8311600181146117d357600084156117bb5750858301515b600019600386901b1c1916600185901b178555611768565b600085815260208120601f198616915b82811015611802578886015182559484019460019091019084016117e3565b50858210156118205787850151600019600388901b60f8161c191681555b5050505050600190811b01905550565b60208082526032908201527f4552433732313a207472616e7366657220746f206e6f6e20455243373231526560408201527131b2b4bb32b91034b6b83632b6b2b73a32b960711b606082015260800190565b60008351611894818460208801611358565b8351908301906118a8818360208801611358565b01949350505050565b6001600160a01b03858116825284166020820152604081018390526080606082018190526000906118e490830184611384565b9695505050505050565b60006020828403121561190057600080fd5b815161100181611325565b60006001820161191d5761191d6116dd565b5060010190565b634e487b7160e01b600052601260045260246000fd5b60008261194957611949611924565b500490565b60008261195d5761195d611924565b500690565b634e487b7160e01b600052603260045260246000fdfea26469706673582212208590e0d9eaafcfbd4527dd291d154b611c315ac9cb6a81c1d655a44c4dcb64d264736f6c634300080f0033",
  "immutableReferences": {},
  "source": "//SPDX-License-Identifier: MIT\npragma solidity ^0.8.1;\n\n// import \"hardhat/console.sol\";\nimport \"@openzeppelin/contracts/utils/Counters.sol\";\nimport \"@openzeppelin/contracts/token/ERC721/ERC721.sol\";\nimport \"@openzeppelin/contracts/token/ERC721/extensions/ERC721URIStorage.sol\";\n\ncontract Minty is ERC721, ERC721URIStorage {\n\n    using Counters for Counters.Counter;\n    Counters.Counter private _tokenIdTracker;\n\n    constructor(string memory tokenName, string memory symbol) ERC721(tokenName, symbol) {}\n\n    /**\n     * @dev Creates a new token for `to`. Its token ID will be automatically\n     * assigned (and available on the emitted {IERC721-Transfer} event), and the token\n     * URI autogenerated based on the base URI passed at construction.\n     *\n     * See {ERC721-_mint}.\n     *\n     */\n    function mint(address to) public virtual {\n        mintToken(to, \"\");\n    }\n\n    function mintToken(address owner, string memory metadataURI) public {\n        uint256 id = _tokenIdTracker.current();\n        super._safeMint(owner, id);\n        super._setTokenURI(id, metadataURI);\n        _tokenIdTracker.increment();\n    }\n\n    function _baseURI() internal view virtual override returns (string memory) {\n        return \"\";\n    }\n\n    function _beforeTokenTransfer(address from, address to, uint256 tokenId) internal virtual override {\n        super._beforeTokenTransfer(from, to, tokenId);\n    }\n\n    /**\n     * @dev See {IERC165-supportsInterface}.\n     */\n    function supportsInterface(bytes4 interfaceId) public view virtual override returns (bool) {\n        return super.supportsInterface(interfaceId);\n    }\n\n    /**\n     * @dev Burns `tokenId`. See {ERC721-_burn}.\n     *\n     * Requirements:\n     *\n     * - The caller must own `tokenId` or be an approved operator.\n     */\n    function burn(uint256 tokenId) public virtual {\n        //solhint-disable-next-line max-line-length\n        require(_isApprovedOrOwner(_msgSender(), tokenId), \"ERC721Burnable: caller is not owner nor approved\");\n        _burn(tokenId);\n    }\n\n    function _burn(uint256 tokenId) internal virtual override(ERC721, ERC721URIStorage) {\n        super._burn(tokenId);\n    }\n\n    function tokenURI(uint256 tokenId) public view virtual override(ERC721, ERC721URIStorage) returns (string memory) {\n        return super.tokenURI(tokenId);\n    }\n\n\n}\n",
  "sourcePath": "/home/skeetzo/Projects/minty/src/contracts/Minty.sol",
  "compiler": {
    "name": "solc",
    "version": "0.8.15+commit.e14f2714.Emscripten.clang"
  },
  "schemaVersion": "3.4.8",
  "updatedAt": "2022-08-09T01:24:02.616Z",
  "networkType": "ethereum",
  "devdoc": {
    "kind": "dev",
    "methods": {
      "approve(address,uint256)": {
        "details": "See {IERC721-approve}."
      },
      "balanceOf(address)": {
        "details": "See {IERC721-balanceOf}."
      },
      "burn(uint256)": {
        "details": "Burns `tokenId`. See {ERC721-_burn}. Requirements: - The caller must own `tokenId` or be an approved operator."
      },
      "getApproved(uint256)": {
        "details": "See {IERC721-getApproved}."
      },
      "isApprovedForAll(address,address)": {
        "details": "See {IERC721-isApprovedForAll}."
      },
      "mint(address)": {
        "details": "Creates a new token for `to`. Its token ID will be automatically assigned (and available on the emitted {IERC721-Transfer} event), and the token URI autogenerated based on the base URI passed at construction. See {ERC721-_mint}."
      },
      "name()": {
        "details": "See {IERC721Metadata-name}."
      },
      "ownerOf(uint256)": {
        "details": "See {IERC721-ownerOf}."
      },
      "safeTransferFrom(address,address,uint256)": {
        "details": "See {IERC721-safeTransferFrom}."
      },
      "safeTransferFrom(address,address,uint256,bytes)": {
        "details": "See {IERC721-safeTransferFrom}."
      },
      "setApprovalForAll(address,bool)": {
        "details": "See {IERC721-setApprovalForAll}."
      },
      "supportsInterface(bytes4)": {
        "details": "See {IERC165-supportsInterface}."
      },
      "symbol()": {
        "details": "See {IERC721Metadata-symbol}."
      },
      "transferFrom(address,address,uint256)": {
        "details": "See {IERC721-transferFrom}."
      }
    },
    "version": 1
  },
  "userdoc": {
    "kind": "user",
    "methods": {},
    "version": 1
  }
}