{
  "contractName": "MintyPreset",
  "abi": [
    {
      "inputs": [
        {
          "internalType": "string",
          "name": "tokenName",
          "type": "string"
        },
        {
          "internalType": "string",
          "name": "symbol",
          "type": "string"
        }
      ],
      "stateMutability": "nonpayable",
      "type": "constructor"
    },
    {
      "anonymous": false,
      "inputs": [
        {
          "indexed": true,
          "internalType": "address",
          "name": "owner",
          "type": "address"
        },
        {
          "indexed": true,
          "internalType": "address",
          "name": "approved",
          "type": "address"
        },
        {
          "indexed": true,
          "internalType": "uint256",
          "name": "tokenId",
          "type": "uint256"
        }
      ],
      "name": "Approval",
      "type": "event"
    },
    {
      "anonymous": false,
      "inputs": [
        {
          "indexed": true,
          "internalType": "address",
          "name": "owner",
          "type": "address"
        },
        {
          "indexed": true,
          "internalType": "address",
          "name": "operator",
          "type": "address"
        },
        {
          "indexed": false,
          "internalType": "bool",
          "name": "approved",
          "type": "bool"
        }
      ],
      "name": "ApprovalForAll",
      "type": "event"
    },
    {
      "anonymous": false,
      "inputs": [
        {
          "indexed": false,
          "internalType": "address",
          "name": "account",
          "type": "address"
        }
      ],
      "name": "Paused",
      "type": "event"
    },
    {
      "anonymous": false,
      "inputs": [
        {
          "indexed": true,
          "internalType": "bytes32",
          "name": "role",
          "type": "bytes32"
        },
        {
          "indexed": true,
          "internalType": "bytes32",
          "name": "previousAdminRole",
          "type": "bytes32"
        },
        {
          "indexed": true,
          "internalType": "bytes32",
          "name": "newAdminRole",
          "type": "bytes32"
        }
      ],
      "name": "RoleAdminChanged",
      "type": "event"
    },
    {
      "anonymous": false,
      "inputs": [
        {
          "indexed": true,
          "internalType": "bytes32",
          "name": "role",
          "type": "bytes32"
        },
        {
          "indexed": true,
          "internalType": "address",
          "name": "account",
          "type": "address"
        },
        {
          "indexed": true,
          "internalType": "address",
          "name": "sender",
          "type": "address"
        }
      ],
      "name": "RoleGranted",
      "type": "event"
    },
    {
      "anonymous": false,
      "inputs": [
        {
          "indexed": true,
          "internalType": "bytes32",
          "name": "role",
          "type": "bytes32"
        },
        {
          "indexed": true,
          "internalType": "address",
          "name": "account",
          "type": "address"
        },
        {
          "indexed": true,
          "internalType": "address",
          "name": "sender",
          "type": "address"
        }
      ],
      "name": "RoleRevoked",
      "type": "event"
    },
    {
      "anonymous": false,
      "inputs": [
        {
          "indexed": true,
          "internalType": "address",
          "name": "from",
          "type": "address"
        },
        {
          "indexed": true,
          "internalType": "address",
          "name": "to",
          "type": "address"
        },
        {
          "indexed": true,
          "internalType": "uint256",
          "name": "tokenId",
          "type": "uint256"
        }
      ],
      "name": "Transfer",
      "type": "event"
    },
    {
      "anonymous": false,
      "inputs": [
        {
          "indexed": false,
          "internalType": "address",
          "name": "account",
          "type": "address"
        }
      ],
      "name": "Unpaused",
      "type": "event"
    },
    {
      "inputs": [],
      "name": "DEFAULT_ADMIN_ROLE",
      "outputs": [
        {
          "internalType": "bytes32",
          "name": "",
          "type": "bytes32"
        }
      ],
      "stateMutability": "view",
      "type": "function",
      "constant": true
    },
    {
      "inputs": [],
      "name": "MINTER_ROLE",
      "outputs": [
        {
          "internalType": "bytes32",
          "name": "",
          "type": "bytes32"
        }
      ],
      "stateMutability": "view",
      "type": "function",
      "constant": true
    },
    {
      "inputs": [],
      "name": "PAUSER_ROLE",
      "outputs": [
        {
          "internalType": "bytes32",
          "name": "",
          "type": "bytes32"
        }
      ],
      "stateMutability": "view",
      "type": "function",
      "constant": true
    },
    {
      "inputs": [
        {
          "internalType": "address",
          "name": "to",
          "type": "address"
        },
        {
          "internalType": "uint256",
          "name": "tokenId",
          "type": "uint256"
        }
      ],
      "name": "approve",
      "outputs": [],
      "stateMutability": "nonpayable",
      "type": "function"
    },
    {
      "inputs": [
        {
          "internalType": "address",
          "name": "owner",
          "type": "address"
        }
      ],
      "name": "balanceOf",
      "outputs": [
        {
          "internalType": "uint256",
          "name": "",
          "type": "uint256"
        }
      ],
      "stateMutability": "view",
      "type": "function",
      "constant": true
    },
    {
      "inputs": [
        {
          "internalType": "uint256",
          "name": "tokenId",
          "type": "uint256"
        }
      ],
      "name": "burn",
      "outputs": [],
      "stateMutability": "nonpayable",
      "type": "function"
    },
    {
      "inputs": [
        {
          "internalType": "uint256",
          "name": "tokenId",
          "type": "uint256"
        }
      ],
      "name": "getApproved",
      "outputs": [
        {
          "internalType": "address",
          "name": "",
          "type": "address"
        }
      ],
      "stateMutability": "view",
      "type": "function",
      "constant": true
    },
    {
      "inputs": [
        {
          "internalType": "bytes32",
          "name": "role",
          "type": "bytes32"
        }
      ],
      "name": "getRoleAdmin",
      "outputs": [
        {
          "internalType": "bytes32",
          "name": "",
          "type": "bytes32"
        }
      ],
      "stateMutability": "view",
      "type": "function",
      "constant": true
    },
    {
      "inputs": [
        {
          "internalType": "bytes32",
          "name": "role",
          "type": "bytes32"
        },
        {
          "internalType": "uint256",
          "name": "index",
          "type": "uint256"
        }
      ],
      "name": "getRoleMember",
      "outputs": [
        {
          "internalType": "address",
          "name": "",
          "type": "address"
        }
      ],
      "stateMutability": "view",
      "type": "function",
      "constant": true
    },
    {
      "inputs": [
        {
          "internalType": "bytes32",
          "name": "role",
          "type": "bytes32"
        }
      ],
      "name": "getRoleMemberCount",
      "outputs": [
        {
          "internalType": "uint256",
          "name": "",
          "type": "uint256"
        }
      ],
      "stateMutability": "view",
      "type": "function",
      "constant": true
    },
    {
      "inputs": [
        {
          "internalType": "bytes32",
          "name": "role",
          "type": "bytes32"
        },
        {
          "internalType": "address",
          "name": "account",
          "type": "address"
        }
      ],
      "name": "grantRole",
      "outputs": [],
      "stateMutability": "nonpayable",
      "type": "function"
    },
    {
      "inputs": [
        {
          "internalType": "bytes32",
          "name": "role",
          "type": "bytes32"
        },
        {
          "internalType": "address",
          "name": "account",
          "type": "address"
        }
      ],
      "name": "hasRole",
      "outputs": [
        {
          "internalType": "bool",
          "name": "",
          "type": "bool"
        }
      ],
      "stateMutability": "view",
      "type": "function",
      "constant": true
    },
    {
      "inputs": [
        {
          "internalType": "address",
          "name": "owner",
          "type": "address"
        },
        {
          "internalType": "address",
          "name": "operator",
          "type": "address"
        }
      ],
      "name": "isApprovedForAll",
      "outputs": [
        {
          "internalType": "bool",
          "name": "",
          "type": "bool"
        }
      ],
      "stateMutability": "view",
      "type": "function",
      "constant": true
    },
    {
      "inputs": [],
      "name": "name",
      "outputs": [
        {
          "internalType": "string",
          "name": "",
          "type": "string"
        }
      ],
      "stateMutability": "view",
      "type": "function",
      "constant": true
    },
    {
      "inputs": [
        {
          "internalType": "uint256",
          "name": "tokenId",
          "type": "uint256"
        }
      ],
      "name": "ownerOf",
      "outputs": [
        {
          "internalType": "address",
          "name": "",
          "type": "address"
        }
      ],
      "stateMutability": "view",
      "type": "function",
      "constant": true
    },
    {
      "inputs": [],
      "name": "pause",
      "outputs": [],
      "stateMutability": "nonpayable",
      "type": "function"
    },
    {
      "inputs": [],
      "name": "paused",
      "outputs": [
        {
          "internalType": "bool",
          "name": "",
          "type": "bool"
        }
      ],
      "stateMutability": "view",
      "type": "function",
      "constant": true
    },
    {
      "inputs": [
        {
          "internalType": "bytes32",
          "name": "role",
          "type": "bytes32"
        },
        {
          "internalType": "address",
          "name": "account",
          "type": "address"
        }
      ],
      "name": "renounceRole",
      "outputs": [],
      "stateMutability": "nonpayable",
      "type": "function"
    },
    {
      "inputs": [
        {
          "internalType": "bytes32",
          "name": "role",
          "type": "bytes32"
        },
        {
          "internalType": "address",
          "name": "account",
          "type": "address"
        }
      ],
      "name": "revokeRole",
      "outputs": [],
      "stateMutability": "nonpayable",
      "type": "function"
    },
    {
      "inputs": [
        {
          "internalType": "address",
          "name": "from",
          "type": "address"
        },
        {
          "internalType": "address",
          "name": "to",
          "type": "address"
        },
        {
          "internalType": "uint256",
          "name": "tokenId",
          "type": "uint256"
        }
      ],
      "name": "safeTransferFrom",
      "outputs": [],
      "stateMutability": "nonpayable",
      "type": "function"
    },
    {
      "inputs": [
        {
          "internalType": "address",
          "name": "from",
          "type": "address"
        },
        {
          "internalType": "address",
          "name": "to",
          "type": "address"
        },
        {
          "internalType": "uint256",
          "name": "tokenId",
          "type": "uint256"
        },
        {
          "internalType": "bytes",
          "name": "_data",
          "type": "bytes"
        }
      ],
      "name": "safeTransferFrom",
      "outputs": [],
      "stateMutability": "nonpayable",
      "type": "function"
    },
    {
      "inputs": [
        {
          "internalType": "address",
          "name": "operator",
          "type": "address"
        },
        {
          "internalType": "bool",
          "name": "approved",
          "type": "bool"
        }
      ],
      "name": "setApprovalForAll",
      "outputs": [],
      "stateMutability": "nonpayable",
      "type": "function"
    },
    {
      "inputs": [],
      "name": "symbol",
      "outputs": [
        {
          "internalType": "string",
          "name": "",
          "type": "string"
        }
      ],
      "stateMutability": "view",
      "type": "function",
      "constant": true
    },
    {
      "inputs": [
        {
          "internalType": "uint256",
          "name": "index",
          "type": "uint256"
        }
      ],
      "name": "tokenByIndex",
      "outputs": [
        {
          "internalType": "uint256",
          "name": "",
          "type": "uint256"
        }
      ],
      "stateMutability": "view",
      "type": "function",
      "constant": true
    },
    {
      "inputs": [
        {
          "internalType": "address",
          "name": "owner",
          "type": "address"
        },
        {
          "internalType": "uint256",
          "name": "index",
          "type": "uint256"
        }
      ],
      "name": "tokenOfOwnerByIndex",
      "outputs": [
        {
          "internalType": "uint256",
          "name": "",
          "type": "uint256"
        }
      ],
      "stateMutability": "view",
      "type": "function",
      "constant": true
    },
    {
      "inputs": [],
      "name": "totalSupply",
      "outputs": [
        {
          "internalType": "uint256",
          "name": "",
          "type": "uint256"
        }
      ],
      "stateMutability": "view",
      "type": "function",
      "constant": true
    },
    {
      "inputs": [
        {
          "internalType": "address",
          "name": "from",
          "type": "address"
        },
        {
          "internalType": "address",
          "name": "to",
          "type": "address"
        },
        {
          "internalType": "uint256",
          "name": "tokenId",
          "type": "uint256"
        }
      ],
      "name": "transferFrom",
      "outputs": [],
      "stateMutability": "nonpayable",
      "type": "function"
    },
    {
      "inputs": [],
      "name": "unpause",
      "outputs": [],
      "stateMutability": "nonpayable",
      "type": "function"
    },
    {
      "inputs": [
        {
          "internalType": "address",
          "name": "to",
          "type": "address"
        }
      ],
      "name": "mint",
      "outputs": [],
      "stateMutability": "nonpayable",
      "type": "function"
    },
    {
      "inputs": [
        {
          "internalType": "address",
          "name": "owner",
          "type": "address"
        },
        {
          "internalType": "string",
          "name": "metadataURI",
          "type": "string"
        }
      ],
      "name": "mintToken",
      "outputs": [],
      "stateMutability": "nonpayable",
      "type": "function"
    },
    {
      "inputs": [
        {
          "internalType": "bytes4",
          "name": "interfaceId",
          "type": "bytes4"
        }
      ],
      "name": "supportsInterface",
      "outputs": [
        {
          "internalType": "bool",
          "name": "",
          "type": "bool"
        }
      ],
      "stateMutability": "view",
      "type": "function",
      "constant": true
    },
    {
      "inputs": [
        {
          "internalType": "uint256",
          "name": "tokenId",
          "type": "uint256"
        }
      ],
      "name": "tokenURI",
      "outputs": [
        {
          "internalType": "string",
          "name": "",
          "type": "string"
        }
      ],
      "stateMutability": "view",
      "type": "function",
      "constant": true
    }
  ],
  "bytecode": "0x60806040523480156200001157600080fd5b5060405162002f6c38038062002f6c833981016040819052620000349162000333565b604080518082019091526007815266697066733a2f2f60c81b602082015282908290828260026200006683826200042b565b5060036200007582826200042b565b5050600c805460ff1916905550600e6200009082826200042b565b506200009e60003362000101565b620000ca7f9f2df0fed2c77648de5860a4cc508cd0818c85b8b8a1ab4ceeef8d981c8956a63362000101565b620000f67f65d7a28e3265b37a6474929f336521b332c1681b933f6cb9f3376673440d862a3362000101565b5050505050620004f7565b6200010d828262000111565b5050565b6200012882826200015460201b62000d991760201c565b60008281526001602090815260409091206200014f91839062000e1d620001f4821b17901c565b505050565b6000828152602081815260408083206001600160a01b038516845290915290205460ff166200010d576000828152602081815260408083206001600160a01b03851684529091529020805460ff19166001179055620001b03390565b6001600160a01b0316816001600160a01b0316837f2f8788117e7eff1d82e926ec794901d17c78024a50270940304540a733656f0d60405160405180910390a45050565b60006200020b836001600160a01b03841662000214565b90505b92915050565b60008181526001830160205260408120546200025d575081546001818101845560008481526020808220909301849055845484825282860190935260409020919091556200020e565b5060006200020e565b634e487b7160e01b600052604160045260246000fd5b600082601f8301126200028e57600080fd5b81516001600160401b0380821115620002ab57620002ab62000266565b604051601f8301601f19908116603f01168101908282118183101715620002d657620002d662000266565b81604052838152602092508683858801011115620002f357600080fd5b600091505b83821015620003175785820183015181830184015290820190620002f8565b83821115620003295760008385830101525b9695505050505050565b600080604083850312156200034757600080fd5b82516001600160401b03808211156200035f57600080fd5b6200036d868387016200027c565b935060208501519150808211156200038457600080fd5b5062000393858286016200027c565b9150509250929050565b600181811c90821680620003b257607f821691505b602082108103620003d357634e487b7160e01b600052602260045260246000fd5b50919050565b601f8211156200014f57600081815260208120601f850160051c81016020861015620004025750805b601f850160051c820191505b8181101562000423578281556001016200040e565b505050505050565b81516001600160401b0381111562000447576200044762000266565b6200045f816200045884546200039d565b84620003d9565b602080601f8311600181146200049757600084156200047e5750858301515b600019600386901b1c1916600185901b17855562000423565b600085815260208120601f198616915b82811015620004c857888601518255948401946001909101908401620004a7565b5085821015620004e75787850151600019600388901b60f8161c191681555b5050505050600190811b01905550565b612a6580620005076000396000f3fe608060405234801561001057600080fd5b50600436106101f05760003560e01c80636352211e1161010f578063a22cb465116100a2578063d539139311610071578063d539139314610415578063d547741f1461043c578063e63ab1e91461044f578063e985e9c51461047657600080fd5b8063a22cb465146103c9578063b88d4fde146103dc578063c87b56dd146103ef578063ca15c8731461040257600080fd5b80639010d07c116100de5780639010d07c1461039357806391d14854146103a657806395d89b41146103b9578063a217fddf146103c157600080fd5b80636352211e146103525780636a6278421461036557806370a08231146103785780638456cb591461038b57600080fd5b80632f745c591161018757806342842e0e1161015657806342842e0e1461030e57806342966c68146103215780634f6ccce7146103345780635c975abb1461034757600080fd5b80632f745c59146102cd57806336568abe146102e05780633d02d0c9146102f35780633f4ba83a1461030657600080fd5b806318160ddd116101c357806318160ddd1461027257806323b872dd14610284578063248a9ca3146102975780632f2ff15d146102ba57600080fd5b806301ffc9a7146101f557806306fdde031461021d578063081812fc14610232578063095ea7b31461025d575b600080fd5b6102086102033660046122ec565b6104b2565b60405190151581526020015b60405180910390f35b6102256104c3565b6040516102149190612361565b610245610240366004612374565b610555565b6040516001600160a01b039091168152602001610214565b61027061026b3660046123a9565b6105e2565b005b600a545b604051908152602001610214565b6102706102923660046123d3565b6106f7565b6102766102a5366004612374565b60009081526020819052604090206001015490565b6102706102c836600461240f565b610729565b6102766102db3660046123a9565b61074e565b6102706102ee36600461240f565b6107e4565b6102706103013660046124c7565b610862565b610270610891565b61027061031c3660046123d3565b610939565b61027061032f366004612374565b610954565b610276610342366004612374565b6109ce565b600c5460ff16610208565b610245610360366004612374565b610a61565b610270610373366004612529565b610ad8565b610276610386366004612529565b610b8d565b610270610c14565b6102456103a1366004612544565b610cb8565b6102086103b436600461240f565b610cd7565b610225610d00565b610276600081565b6102706103d7366004612566565b610d0f565b6102706103ea3660046125a2565b610d1a565b6102256103fd366004612374565b610d52565b610276610410366004612374565b610d5d565b6102767f9f2df0fed2c77648de5860a4cc508cd0818c85b8b8a1ab4ceeef8d981c8956a681565b61027061044a36600461240f565b610d74565b6102767f65d7a28e3265b37a6474929f336521b332c1681b933f6cb9f3376673440d862a81565b61020861048436600461261e565b6001600160a01b03918216600090815260076020908152604080832093909416825291909152205460ff1690565b60006104bd82610e32565b92915050565b6060600280546104d290612648565b80601f01602080910402602001604051908101604052809291908181526020018280546104fe90612648565b801561054b5780601f106105205761010080835404028352916020019161054b565b820191906000526020600020905b81548152906001019060200180831161052e57829003601f168201915b5050505050905090565b600061056082610e3d565b6105c65760405162461bcd60e51b815260206004820152602c60248201527f4552433732313a20617070726f76656420717565727920666f72206e6f6e657860448201526b34b9ba32b73a103a37b5b2b760a11b60648201526084015b60405180910390fd5b506000908152600660205260409020546001600160a01b031690565b60006105ed82610a61565b9050806001600160a01b0316836001600160a01b03160361065a5760405162461bcd60e51b815260206004820152602160248201527f4552433732313a20617070726f76616c20746f2063757272656e74206f776e656044820152603960f91b60648201526084016105bd565b336001600160a01b038216148061067657506106768133610484565b6106e85760405162461bcd60e51b815260206004820152603860248201527f4552433732313a20617070726f76652063616c6c6572206973206e6f74206f7760448201527f6e6572206e6f7220617070726f76656420666f7220616c6c000000000000000060648201526084016105bd565b6106f28383610e5a565b505050565b610702335b82610ec8565b61071e5760405162461bcd60e51b81526004016105bd90612682565b6106f2838383610fb2565b60008281526020819052604090206001015461074481611159565b6106f28383611163565b600061075983610b8d565b82106107bb5760405162461bcd60e51b815260206004820152602b60248201527f455243373231456e756d657261626c653a206f776e657220696e646578206f7560448201526a74206f6620626f756e647360a81b60648201526084016105bd565b506001600160a01b03919091166000908152600860209081526040808320938352929052205490565b6001600160a01b03811633146108545760405162461bcd60e51b815260206004820152602f60248201527f416363657373436f6e74726f6c3a2063616e206f6e6c792072656e6f756e636560448201526e103937b632b9903337b91039b2b63360891b60648201526084016105bd565b61085e8282611185565b5050565b600061086d60105490565b905061087983826111a7565b61088381836111c1565b6106f2601080546001019055565b6108bb7f65d7a28e3265b37a6474929f336521b332c1681b933f6cb9f3376673440d862a33610cd7565b61092f576040805162461bcd60e51b81526020600482015260248101919091527f4552433732315072657365744d696e7465725061757365724175746f49643a2060448201527f6d75737420686176652070617573657220726f6c6520746f20756e706175736560648201526084016105bd565b610937611245565b565b6106f283838360405180602001604052806000815250610d1a565b61095d336106fc565b6109c25760405162461bcd60e51b815260206004820152603060248201527f4552433732314275726e61626c653a2063616c6c6572206973206e6f74206f7760448201526f1b995c881b9bdc88185c1c1c9bdd995960821b60648201526084016105bd565b6109cb816112d8565b50565b60006109d9600a5490565b8210610a3c5760405162461bcd60e51b815260206004820152602c60248201527f455243373231456e756d657261626c653a20676c6f62616c20696e646578206f60448201526b7574206f6620626f756e647360a01b60648201526084016105bd565b600a8281548110610a4f57610a4f6126d3565b90600052602060002001549050919050565b6000818152600460205260408120546001600160a01b0316806104bd5760405162461bcd60e51b815260206004820152602960248201527f4552433732313a206f776e657220717565727920666f72206e6f6e657869737460448201526832b73a103a37b5b2b760b91b60648201526084016105bd565b610b027f9f2df0fed2c77648de5860a4cc508cd0818c85b8b8a1ab4ceeef8d981c8956a633610cd7565b610b745760405162461bcd60e51b815260206004820152603d60248201527f4552433732315072657365744d696e7465725061757365724175746f49643a2060448201527f6d7573742068617665206d696e74657220726f6c6520746f206d696e7400000060648201526084016105bd565b6109cb8160405180602001604052806000815250610862565b60006001600160a01b038216610bf85760405162461bcd60e51b815260206004820152602a60248201527f4552433732313a2062616c616e636520717565727920666f7220746865207a65604482015269726f206164647265737360b01b60648201526084016105bd565b506001600160a01b031660009081526005602052604090205490565b610c3e7f65d7a28e3265b37a6474929f336521b332c1681b933f6cb9f3376673440d862a33610cd7565b610cb05760405162461bcd60e51b815260206004820152603e60248201527f4552433732315072657365744d696e7465725061757365724175746f49643a2060448201527f6d75737420686176652070617573657220726f6c6520746f207061757365000060648201526084016105bd565b6109376112e1565b6000828152600160205260408120610cd0908361135c565b9392505050565b6000918252602082815260408084206001600160a01b0393909316845291905290205460ff1690565b6060600380546104d290612648565b61085e338383611368565b610d243383610ec8565b610d405760405162461bcd60e51b81526004016105bd90612682565b610d4c84848484611436565b50505050565b60606104bd82611469565b60008181526001602052604081206104bd906115d7565b600082815260208190526040902060010154610d8f81611159565b6106f28383611185565b610da38282610cd7565b61085e576000828152602081815260408083206001600160a01b03851684529091529020805460ff19166001179055610dd93390565b6001600160a01b0316816001600160a01b0316837f2f8788117e7eff1d82e926ec794901d17c78024a50270940304540a733656f0d60405160405180910390a45050565b6000610cd0836001600160a01b0384166115e1565b60006104bd82611630565b6000908152600460205260409020546001600160a01b0316151590565b600081815260066020526040902080546001600160a01b0319166001600160a01b0384169081179091558190610e8f82610a61565b6001600160a01b03167f8c5be1e5ebec7d5bd14f71427d1e84f3dd0314c0f7b2291e5b200ac8c7c3b92560405160405180910390a45050565b6000610ed382610e3d565b610f345760405162461bcd60e51b815260206004820152602c60248201527f4552433732313a206f70657261746f7220717565727920666f72206e6f6e657860448201526b34b9ba32b73a103a37b5b2b760a11b60648201526084016105bd565b6000610f3f83610a61565b9050806001600160a01b0316846001600160a01b03161480610f8657506001600160a01b0380821660009081526007602090815260408083209388168352929052205460ff165b80610faa5750836001600160a01b0316610f9f84610555565b6001600160a01b0316145b949350505050565b826001600160a01b0316610fc582610a61565b6001600160a01b0316146110295760405162461bcd60e51b815260206004820152602560248201527f4552433732313a207472616e736665722066726f6d20696e636f72726563742060448201526437bbb732b960d91b60648201526084016105bd565b6001600160a01b03821661108b5760405162461bcd60e51b8152602060048201526024808201527f4552433732313a207472616e7366657220746f20746865207a65726f206164646044820152637265737360e01b60648201526084016105bd565b611096838383611655565b6110a1600082610e5a565b6001600160a01b03831660009081526005602052604081208054600192906110ca9084906126ff565b90915550506001600160a01b03821660009081526005602052604081208054600192906110f8908490612716565b909155505060008181526004602052604080822080546001600160a01b0319166001600160a01b0386811691821790925591518493918716917fddf252ad1be2c89b69c2b068fc378daa952ba7f163c4a11628f55a4df523b3ef91a4505050565b6109cb8133611660565b61116d8282610d99565b60008281526001602052604090206106f29082610e1d565b61118f82826116c4565b60008281526001602052604090206106f29082611729565b61085e82826040518060200160405280600081525061173e565b6111ca82610e3d565b61122d5760405162461bcd60e51b815260206004820152602e60248201527f45524337323155524953746f726167653a2055524920736574206f66206e6f6e60448201526d32bc34b9ba32b73a103a37b5b2b760911b60648201526084016105bd565b6000828152600f602052604090206106f2828261277c565b600c5460ff1661128e5760405162461bcd60e51b815260206004820152601460248201527314185d5cd8589b194e881b9bdd081c185d5cd95960621b60448201526064016105bd565b600c805460ff191690557f5db9ee0a495bf2e6ff9c91a7834c1ba4fdd244a5e8aa4e537bd38aeae4b073aa335b6040516001600160a01b03909116815260200160405180910390a1565b6109cb81611771565b600c5460ff16156113275760405162461bcd60e51b815260206004820152601060248201526f14185d5cd8589b194e881c185d5cd95960821b60448201526064016105bd565b600c805460ff191660011790557f62e78cea01bee320cd4e420270b5ea74000d11b0c9f74754ebdbfc544b05a2586112bb3390565b6000610cd083836117b1565b816001600160a01b0316836001600160a01b0316036113c95760405162461bcd60e51b815260206004820152601960248201527f4552433732313a20617070726f766520746f2063616c6c65720000000000000060448201526064016105bd565b6001600160a01b03838116600081815260076020908152604080832094871680845294825291829020805460ff191686151590811790915591519182527f17307eab39ab6107e8899845ad3d59bd9653f200f220920489ca2b5937696c31910160405180910390a3505050565b611441848484610fb2565b61144d848484846117db565b610d4c5760405162461bcd60e51b81526004016105bd9061283c565b606061147482610e3d565b6114da5760405162461bcd60e51b815260206004820152603160248201527f45524337323155524953746f726167653a2055524920717565727920666f72206044820152703737b732bc34b9ba32b73a103a37b5b2b760791b60648201526084016105bd565b6000828152600f6020526040812080546114f390612648565b80601f016020809104026020016040519081016040528092919081815260200182805461151f90612648565b801561156c5780601f106115415761010080835404028352916020019161156c565b820191906000526020600020905b81548152906001019060200180831161154f57829003601f168201915b50505050509050600061158a60408051602081019091526000815290565b9050805160000361159c575092915050565b8151156115ce5780826040516020016115b692919061288e565b60405160208183030381529060405292505050919050565b610faa846118dc565b60006104bd825490565b6000818152600183016020526040812054611628575081546001818101845560008481526020808220909301849055845484825282860190935260409020919091556104bd565b5060006104bd565b60006001600160e01b0319821663780e9d6360e01b14806104bd57506104bd826119b3565b6106f28383836119f3565b61166a8282610cd7565b61085e57611682816001600160a01b031660146119fe565b61168d8360206119fe565b60405160200161169e9291906128bd565b60408051601f198184030181529082905262461bcd60e51b82526105bd91600401612361565b6116ce8282610cd7565b1561085e576000828152602081815260408083206001600160a01b0385168085529252808320805460ff1916905551339285917ff6391f5c32d9c69d2a47ea670b442974b53935d1edc7fd64eb21e047a839171b9190a45050565b6000610cd0836001600160a01b038416611b9a565b6117488383611c8d565b61175560008484846117db565b6106f25760405162461bcd60e51b81526004016105bd9061283c565b61177a81611dcc565b6000818152600f60205260409020805461179390612648565b1590506109cb576000818152600f602052604081206109cb91612288565b60008260000182815481106117c8576117c86126d3565b9060005260206000200154905092915050565b60006001600160a01b0384163b156118d157604051630a85bd0160e11b81526001600160a01b0385169063150b7a029061181f903390899088908890600401612932565b6020604051808303816000875af192505050801561185a575060408051601f3d908101601f191682019092526118579181019061296f565b60015b6118b7573d808015611888576040519150601f19603f3d011682016040523d82523d6000602084013e61188d565b606091505b5080516000036118af5760405162461bcd60e51b81526004016105bd9061283c565b805181602001fd5b6001600160e01b031916630a85bd0160e11b149050610faa565b506001949350505050565b60606118e782610e3d565b61194b5760405162461bcd60e51b815260206004820152602f60248201527f4552433732314d657461646174613a2055524920717565727920666f72206e6f60448201526e3732bc34b9ba32b73a103a37b5b2b760891b60648201526084016105bd565b600061196260408051602081019091526000815290565b905060008151116119825760405180602001604052806000815250610cd0565b8061198c84611e73565b60405160200161199d92919061288e565b6040516020818303038152906040529392505050565b60006001600160e01b031982166380ac58cd60e01b14806119e457506001600160e01b03198216635b5e139f60e01b145b806104bd57506104bd82611f74565b6106f2838383611f99565b60606000611a0d83600261298c565b611a18906002612716565b67ffffffffffffffff811115611a3057611a3061243b565b6040519080825280601f01601f191660200182016040528015611a5a576020820181803683370190505b509050600360fc1b81600081518110611a7557611a756126d3565b60200101906001600160f81b031916908160001a905350600f60fb1b81600181518110611aa457611aa46126d3565b60200101906001600160f81b031916908160001a9053506000611ac884600261298c565b611ad3906001612716565b90505b6001811115611b4b576f181899199a1a9b1b9c1cb0b131b232b360811b85600f1660108110611b0757611b076126d3565b1a60f81b828281518110611b1d57611b1d6126d3565b60200101906001600160f81b031916908160001a90535060049490941c93611b44816129ab565b9050611ad6565b508315610cd05760405162461bcd60e51b815260206004820181905260248201527f537472696e67733a20686578206c656e67746820696e73756666696369656e7460448201526064016105bd565b60008181526001830160205260408120548015611c83576000611bbe6001836126ff565b8554909150600090611bd2906001906126ff565b9050818114611c37576000866000018281548110611bf257611bf26126d3565b9060005260206000200154905080876000018481548110611c1557611c156126d3565b6000918252602080832090910192909255918252600188019052604090208390555b8554869080611c4857611c486129c2565b6001900381819060005260206000200160009055905585600101600086815260200190815260200160002060009055600193505050506104bd565b60009150506104bd565b6001600160a01b038216611ce35760405162461bcd60e51b815260206004820181905260248201527f4552433732313a206d696e7420746f20746865207a65726f206164647265737360448201526064016105bd565b611cec81610e3d565b15611d395760405162461bcd60e51b815260206004820152601c60248201527f4552433732313a20746f6b656e20616c7265616479206d696e7465640000000060448201526064016105bd565b611d4560008383611655565b6001600160a01b0382166000908152600560205260408120805460019290611d6e908490612716565b909155505060008181526004602052604080822080546001600160a01b0319166001600160a01b03861690811790915590518392907fddf252ad1be2c89b69c2b068fc378daa952ba7f163c4a11628f55a4df523b3ef908290a45050565b6000611dd782610a61565b9050611de581600084611655565b611df0600083610e5a565b6001600160a01b0381166000908152600560205260408120805460019290611e199084906126ff565b909155505060008281526004602052604080822080546001600160a01b0319169055518391906001600160a01b038416907fddf252ad1be2c89b69c2b068fc378daa952ba7f163c4a11628f55a4df523b3ef908390a45050565b606081600003611e9a5750506040805180820190915260018152600360fc1b602082015290565b8160005b8115611ec45780611eae816129d8565b9150611ebd9050600a83612a07565b9150611e9e565b60008167ffffffffffffffff811115611edf57611edf61243b565b6040519080825280601f01601f191660200182016040528015611f09576020820181803683370190505b5090505b8415610faa57611f1e6001836126ff565b9150611f2b600a86612a1b565b611f36906030612716565b60f81b818381518110611f4b57611f4b6126d3565b60200101906001600160f81b031916908160001a905350611f6d600a86612a07565b9450611f0d565b60006001600160e01b03198216635a05180f60e01b14806104bd57506104bd8261200b565b611fa4838383612040565b600c5460ff16156106f25760405162461bcd60e51b815260206004820152602b60248201527f4552433732315061757361626c653a20746f6b656e207472616e73666572207760448201526a1a1a5b19481c185d5cd95960aa1b60648201526084016105bd565b60006001600160e01b03198216637965db0b60e01b14806104bd57506301ffc9a760e01b6001600160e01b03198316146104bd565b6001600160a01b03831661209b5761209681600a80546000838152600b60205260408120829055600182018355919091527fc65a7bb8d6351c1cf70c95a316cc6a92839c986682d98bc35f958f4883f9d2a80155565b6120be565b816001600160a01b0316836001600160a01b0316146120be576120be83826120f8565b6001600160a01b0382166120d5576106f281612195565b826001600160a01b0316826001600160a01b0316146106f2576106f28282612244565b6000600161210584610b8d565b61210f91906126ff565b600083815260096020526040902054909150808214612162576001600160a01b03841660009081526008602090815260408083208584528252808320548484528184208190558352600990915290208190555b5060009182526009602090815260408084208490556001600160a01b039094168352600881528383209183525290812055565b600a546000906121a7906001906126ff565b6000838152600b6020526040812054600a80549394509092849081106121cf576121cf6126d3565b9060005260206000200154905080600a83815481106121f0576121f06126d3565b6000918252602080832090910192909255828152600b9091526040808220849055858252812055600a805480612228576122286129c2565b6001900381819060005260206000200160009055905550505050565b600061224f83610b8d565b6001600160a01b039093166000908152600860209081526040808320868452825280832085905593825260099052919091209190915550565b50805461229490612648565b6000825580601f106122a4575050565b601f0160209004906000526020600020908101906109cb91905b808211156122d257600081556001016122be565b5090565b6001600160e01b0319811681146109cb57600080fd5b6000602082840312156122fe57600080fd5b8135610cd0816122d6565b60005b8381101561232457818101518382015260200161230c565b83811115610d4c5750506000910152565b6000815180845261234d816020860160208601612309565b601f01601f19169290920160200192915050565b602081526000610cd06020830184612335565b60006020828403121561238657600080fd5b5035919050565b80356001600160a01b03811681146123a457600080fd5b919050565b600080604083850312156123bc57600080fd5b6123c58361238d565b946020939093013593505050565b6000806000606084860312156123e857600080fd5b6123f18461238d565b92506123ff6020850161238d565b9150604084013590509250925092565b6000806040838503121561242257600080fd5b823591506124326020840161238d565b90509250929050565b634e487b7160e01b600052604160045260246000fd5b600067ffffffffffffffff8084111561246c5761246c61243b565b604051601f8501601f19908116603f011681019082821181831017156124945761249461243b565b816040528093508581528686860111156124ad57600080fd5b858560208301376000602087830101525050509392505050565b600080604083850312156124da57600080fd5b6124e38361238d565b9150602083013567ffffffffffffffff8111156124ff57600080fd5b8301601f8101851361251057600080fd5b61251f85823560208401612451565b9150509250929050565b60006020828403121561253b57600080fd5b610cd08261238d565b6000806040838503121561255757600080fd5b50508035926020909101359150565b6000806040838503121561257957600080fd5b6125828361238d565b91506020830135801515811461259757600080fd5b809150509250929050565b600080600080608085870312156125b857600080fd5b6125c18561238d565b93506125cf6020860161238d565b925060408501359150606085013567ffffffffffffffff8111156125f257600080fd5b8501601f8101871361260357600080fd5b61261287823560208401612451565b91505092959194509250565b6000806040838503121561263157600080fd5b61263a8361238d565b91506124326020840161238d565b600181811c9082168061265c57607f821691505b60208210810361267c57634e487b7160e01b600052602260045260246000fd5b50919050565b60208082526031908201527f4552433732313a207472616e736665722063616c6c6572206973206e6f74206f6040820152701ddb995c881b9bdc88185c1c1c9bdd9959607a1b606082015260800190565b634e487b7160e01b600052603260045260246000fd5b634e487b7160e01b600052601160045260246000fd5b600082821015612711576127116126e9565b500390565b60008219821115612729576127296126e9565b500190565b601f8211156106f257600081815260208120601f850160051c810160208610156127555750805b601f850160051c820191505b8181101561277457828155600101612761565b505050505050565b815167ffffffffffffffff8111156127965761279661243b565b6127aa816127a48454612648565b8461272e565b602080601f8311600181146127df57600084156127c75750858301515b600019600386901b1c1916600185901b178555612774565b600085815260208120601f198616915b8281101561280e578886015182559484019460019091019084016127ef565b508582101561282c5787850151600019600388901b60f8161c191681555b5050505050600190811b01905550565b60208082526032908201527f4552433732313a207472616e7366657220746f206e6f6e20455243373231526560408201527131b2b4bb32b91034b6b83632b6b2b73a32b960711b606082015260800190565b600083516128a0818460208801612309565b8351908301906128b4818360208801612309565b01949350505050565b7f416363657373436f6e74726f6c3a206163636f756e74200000000000000000008152600083516128f5816017850160208801612309565b7001034b99036b4b9b9b4b733903937b6329607d1b6017918401918201528351612926816028840160208801612309565b01602801949350505050565b6001600160a01b038581168252841660208201526040810183905260806060820181905260009061296590830184612335565b9695505050505050565b60006020828403121561298157600080fd5b8151610cd0816122d6565b60008160001904831182151516156129a6576129a66126e9565b500290565b6000816129ba576129ba6126e9565b506000190190565b634e487b7160e01b600052603160045260246000fd5b6000600182016129ea576129ea6126e9565b5060010190565b634e487b7160e01b600052601260045260246000fd5b600082612a1657612a166129f1565b500490565b600082612a2a57612a2a6129f1565b50069056fea26469706673582212202596635a45d93979ca7138f56341d159301003c640203e5bf7cb4f1a0f74908964736f6c634300080f0033",
  "immutableReferences": {},
  "source": "//SPDX-License-Identifier: MIT\npragma solidity ^0.8.1;\n\n// import \"hardhat/console.sol\";\n// import \"@openzeppelin/contracts/utils/Counters.sol\";\nimport \"@openzeppelin/contracts/token/ERC721/presets/ERC721PresetMinterPauserAutoId.sol\";\nimport \"@openzeppelin/contracts/token/ERC721/extensions/ERC721URIStorage.sol\";\n\ncontract MintyPreset is ERC721PresetMinterPauserAutoId, ERC721URIStorage {\n\n    using Counters for Counters.Counter;\n    Counters.Counter private _tokenIdTracker;\n\n    constructor(string memory tokenName, string memory symbol) ERC721PresetMinterPauserAutoId(tokenName, symbol, \"ipfs://\") {}\n\n    /**\n     * @dev Creates a new token for `to`. Its token ID will be automatically\n     * assigned (and available on the emitted {IERC721-Transfer} event), and the token\n     * URI autogenerated based on the base URI passed at construction.\n     *\n     * See {ERC721-_mint}.\n     *\n     * Requirements:\n     *\n     * - the caller must have the `MINTER_ROLE`.\n     */\n    function mint(address to) public override {\n        require(hasRole(MINTER_ROLE, _msgSender()), \"ERC721PresetMinterPauserAutoId: must have minter role to mint\");\n        mintToken(to, \"\");\n    }\n\n    function mintToken(address owner, string memory metadataURI) public {\n        uint256 id = _tokenIdTracker.current();\n        super._safeMint(owner, id);\n        super._setTokenURI(id, metadataURI);\n        _tokenIdTracker.increment();\n    }\n\n    function _baseURI() internal view virtual override(ERC721, ERC721PresetMinterPauserAutoId) returns (string memory) {\n        return \"\";\n    }\n\n    function _beforeTokenTransfer(address from, address to, uint256 tokenId) internal virtual override(ERC721, ERC721PresetMinterPauserAutoId) {\n        super._beforeTokenTransfer(from, to, tokenId);\n    }\n\n    /**\n     * @dev See {IERC165-supportsInterface}.\n     */\n    function supportsInterface(bytes4 interfaceId) public view virtual override(ERC721, ERC721PresetMinterPauserAutoId) returns (bool) {\n        return super.supportsInterface(interfaceId);\n    }\n\n    function _burn(uint256 tokenId) internal virtual override(ERC721, ERC721URIStorage) {\n        super._burn(tokenId);\n    }\n\n    function tokenURI(uint256 tokenId) public view virtual override(ERC721, ERC721URIStorage) returns (string memory) {\n        return super.tokenURI(tokenId);\n    }\n\n\n}\n",
  "sourcePath": "/home/skeetzo/Projects/minty/src/contracts/MintyPreset.sol",
  "compiler": {
    "name": "solc",
    "version": "0.8.15+commit.e14f2714.Emscripten.clang"
  },
  "schemaVersion": "3.4.8",
  "updatedAt": "2022-08-09T01:24:02.689Z",
  "networkType": "ethereum",
  "devdoc": {
    "kind": "dev",
    "methods": {
      "approve(address,uint256)": {
        "details": "See {IERC721-approve}."
      },
      "balanceOf(address)": {
        "details": "See {IERC721-balanceOf}."
      },
      "burn(uint256)": {
        "details": "Burns `tokenId`. See {ERC721-_burn}. Requirements: - The caller must own `tokenId` or be an approved operator."
      },
      "getApproved(uint256)": {
        "details": "See {IERC721-getApproved}."
      },
      "getRoleAdmin(bytes32)": {
        "details": "Returns the admin role that controls `role`. See {grantRole} and {revokeRole}. To change a role's admin, use {_setRoleAdmin}."
      },
      "getRoleMember(bytes32,uint256)": {
        "details": "Returns one of the accounts that have `role`. `index` must be a value between 0 and {getRoleMemberCount}, non-inclusive. Role bearers are not sorted in any particular way, and their ordering may change at any point. WARNING: When using {getRoleMember} and {getRoleMemberCount}, make sure you perform all queries on the same block. See the following https://forum.openzeppelin.com/t/iterating-over-elements-on-enumerableset-in-openzeppelin-contracts/2296[forum post] for more information."
      },
      "getRoleMemberCount(bytes32)": {
        "details": "Returns the number of accounts that have `role`. Can be used together with {getRoleMember} to enumerate all bearers of a role."
      },
      "grantRole(bytes32,address)": {
        "details": "Grants `role` to `account`. If `account` had not been already granted `role`, emits a {RoleGranted} event. Requirements: - the caller must have ``role``'s admin role."
      },
      "hasRole(bytes32,address)": {
        "details": "Returns `true` if `account` has been granted `role`."
      },
      "isApprovedForAll(address,address)": {
        "details": "See {IERC721-isApprovedForAll}."
      },
      "mint(address)": {
        "details": "Creates a new token for `to`. Its token ID will be automatically assigned (and available on the emitted {IERC721-Transfer} event), and the token URI autogenerated based on the base URI passed at construction. See {ERC721-_mint}. Requirements: - the caller must have the `MINTER_ROLE`."
      },
      "name()": {
        "details": "See {IERC721Metadata-name}."
      },
      "ownerOf(uint256)": {
        "details": "See {IERC721-ownerOf}."
      },
      "pause()": {
        "details": "Pauses all token transfers. See {ERC721Pausable} and {Pausable-_pause}. Requirements: - the caller must have the `PAUSER_ROLE`."
      },
      "paused()": {
        "details": "Returns true if the contract is paused, and false otherwise."
      },
      "renounceRole(bytes32,address)": {
        "details": "Revokes `role` from the calling account. Roles are often managed via {grantRole} and {revokeRole}: this function's purpose is to provide a mechanism for accounts to lose their privileges if they are compromised (such as when a trusted device is misplaced). If the calling account had been revoked `role`, emits a {RoleRevoked} event. Requirements: - the caller must be `account`."
      },
      "revokeRole(bytes32,address)": {
        "details": "Revokes `role` from `account`. If `account` had been granted `role`, emits a {RoleRevoked} event. Requirements: - the caller must have ``role``'s admin role."
      },
      "safeTransferFrom(address,address,uint256)": {
        "details": "See {IERC721-safeTransferFrom}."
      },
      "safeTransferFrom(address,address,uint256,bytes)": {
        "details": "See {IERC721-safeTransferFrom}."
      },
      "setApprovalForAll(address,bool)": {
        "details": "See {IERC721-setApprovalForAll}."
      },
      "supportsInterface(bytes4)": {
        "details": "See {IERC165-supportsInterface}."
      },
      "symbol()": {
        "details": "See {IERC721Metadata-symbol}."
      },
      "tokenByIndex(uint256)": {
        "details": "See {IERC721Enumerable-tokenByIndex}."
      },
      "tokenOfOwnerByIndex(address,uint256)": {
        "details": "See {IERC721Enumerable-tokenOfOwnerByIndex}."
      },
      "totalSupply()": {
        "details": "See {IERC721Enumerable-totalSupply}."
      },
      "transferFrom(address,address,uint256)": {
        "details": "See {IERC721-transferFrom}."
      },
      "unpause()": {
        "details": "Unpauses all token transfers. See {ERC721Pausable} and {Pausable-_unpause}. Requirements: - the caller must have the `PAUSER_ROLE`."
      }
    },
    "version": 1
  },
  "userdoc": {
    "kind": "user",
    "methods": {},
    "version": 1
  }
}