{
  "contractName": "MintyPreset",
  "abi": [
    {
      "inputs": [
        {
          "internalType": "string",
          "name": "tokenName",
          "type": "string"
        },
        {
          "internalType": "string",
          "name": "symbol",
          "type": "string"
        }
      ],
      "stateMutability": "nonpayable",
      "type": "constructor"
    },
    {
      "anonymous": false,
      "inputs": [
        {
          "indexed": true,
          "internalType": "address",
          "name": "owner",
          "type": "address"
        },
        {
          "indexed": true,
          "internalType": "address",
          "name": "approved",
          "type": "address"
        },
        {
          "indexed": true,
          "internalType": "uint256",
          "name": "tokenId",
          "type": "uint256"
        }
      ],
      "name": "Approval",
      "type": "event"
    },
    {
      "anonymous": false,
      "inputs": [
        {
          "indexed": true,
          "internalType": "address",
          "name": "owner",
          "type": "address"
        },
        {
          "indexed": true,
          "internalType": "address",
          "name": "operator",
          "type": "address"
        },
        {
          "indexed": false,
          "internalType": "bool",
          "name": "approved",
          "type": "bool"
        }
      ],
      "name": "ApprovalForAll",
      "type": "event"
    },
    {
      "anonymous": false,
      "inputs": [
        {
          "indexed": false,
          "internalType": "address",
          "name": "account",
          "type": "address"
        }
      ],
      "name": "Paused",
      "type": "event"
    },
    {
      "anonymous": false,
      "inputs": [
        {
          "indexed": true,
          "internalType": "bytes32",
          "name": "role",
          "type": "bytes32"
        },
        {
          "indexed": true,
          "internalType": "bytes32",
          "name": "previousAdminRole",
          "type": "bytes32"
        },
        {
          "indexed": true,
          "internalType": "bytes32",
          "name": "newAdminRole",
          "type": "bytes32"
        }
      ],
      "name": "RoleAdminChanged",
      "type": "event"
    },
    {
      "anonymous": false,
      "inputs": [
        {
          "indexed": true,
          "internalType": "bytes32",
          "name": "role",
          "type": "bytes32"
        },
        {
          "indexed": true,
          "internalType": "address",
          "name": "account",
          "type": "address"
        },
        {
          "indexed": true,
          "internalType": "address",
          "name": "sender",
          "type": "address"
        }
      ],
      "name": "RoleGranted",
      "type": "event"
    },
    {
      "anonymous": false,
      "inputs": [
        {
          "indexed": true,
          "internalType": "bytes32",
          "name": "role",
          "type": "bytes32"
        },
        {
          "indexed": true,
          "internalType": "address",
          "name": "account",
          "type": "address"
        },
        {
          "indexed": true,
          "internalType": "address",
          "name": "sender",
          "type": "address"
        }
      ],
      "name": "RoleRevoked",
      "type": "event"
    },
    {
      "anonymous": false,
      "inputs": [
        {
          "indexed": true,
          "internalType": "address",
          "name": "from",
          "type": "address"
        },
        {
          "indexed": true,
          "internalType": "address",
          "name": "to",
          "type": "address"
        },
        {
          "indexed": true,
          "internalType": "uint256",
          "name": "tokenId",
          "type": "uint256"
        }
      ],
      "name": "Transfer",
      "type": "event"
    },
    {
      "anonymous": false,
      "inputs": [
        {
          "indexed": false,
          "internalType": "address",
          "name": "account",
          "type": "address"
        }
      ],
      "name": "Unpaused",
      "type": "event"
    },
    {
      "inputs": [],
      "name": "DEFAULT_ADMIN_ROLE",
      "outputs": [
        {
          "internalType": "bytes32",
          "name": "",
          "type": "bytes32"
        }
      ],
      "stateMutability": "view",
      "type": "function",
      "constant": true
    },
    {
      "inputs": [],
      "name": "MINTER_ROLE",
      "outputs": [
        {
          "internalType": "bytes32",
          "name": "",
          "type": "bytes32"
        }
      ],
      "stateMutability": "view",
      "type": "function",
      "constant": true
    },
    {
      "inputs": [],
      "name": "PAUSER_ROLE",
      "outputs": [
        {
          "internalType": "bytes32",
          "name": "",
          "type": "bytes32"
        }
      ],
      "stateMutability": "view",
      "type": "function",
      "constant": true
    },
    {
      "inputs": [
        {
          "internalType": "address",
          "name": "to",
          "type": "address"
        },
        {
          "internalType": "uint256",
          "name": "tokenId",
          "type": "uint256"
        }
      ],
      "name": "approve",
      "outputs": [],
      "stateMutability": "nonpayable",
      "type": "function"
    },
    {
      "inputs": [
        {
          "internalType": "address",
          "name": "owner",
          "type": "address"
        }
      ],
      "name": "balanceOf",
      "outputs": [
        {
          "internalType": "uint256",
          "name": "",
          "type": "uint256"
        }
      ],
      "stateMutability": "view",
      "type": "function",
      "constant": true
    },
    {
      "inputs": [
        {
          "internalType": "uint256",
          "name": "tokenId",
          "type": "uint256"
        }
      ],
      "name": "burn",
      "outputs": [],
      "stateMutability": "nonpayable",
      "type": "function"
    },
    {
      "inputs": [
        {
          "internalType": "uint256",
          "name": "tokenId",
          "type": "uint256"
        }
      ],
      "name": "getApproved",
      "outputs": [
        {
          "internalType": "address",
          "name": "",
          "type": "address"
        }
      ],
      "stateMutability": "view",
      "type": "function",
      "constant": true
    },
    {
      "inputs": [
        {
          "internalType": "bytes32",
          "name": "role",
          "type": "bytes32"
        }
      ],
      "name": "getRoleAdmin",
      "outputs": [
        {
          "internalType": "bytes32",
          "name": "",
          "type": "bytes32"
        }
      ],
      "stateMutability": "view",
      "type": "function",
      "constant": true
    },
    {
      "inputs": [
        {
          "internalType": "bytes32",
          "name": "role",
          "type": "bytes32"
        },
        {
          "internalType": "uint256",
          "name": "index",
          "type": "uint256"
        }
      ],
      "name": "getRoleMember",
      "outputs": [
        {
          "internalType": "address",
          "name": "",
          "type": "address"
        }
      ],
      "stateMutability": "view",
      "type": "function",
      "constant": true
    },
    {
      "inputs": [
        {
          "internalType": "bytes32",
          "name": "role",
          "type": "bytes32"
        }
      ],
      "name": "getRoleMemberCount",
      "outputs": [
        {
          "internalType": "uint256",
          "name": "",
          "type": "uint256"
        }
      ],
      "stateMutability": "view",
      "type": "function",
      "constant": true
    },
    {
      "inputs": [
        {
          "internalType": "bytes32",
          "name": "role",
          "type": "bytes32"
        },
        {
          "internalType": "address",
          "name": "account",
          "type": "address"
        }
      ],
      "name": "grantRole",
      "outputs": [],
      "stateMutability": "nonpayable",
      "type": "function"
    },
    {
      "inputs": [
        {
          "internalType": "bytes32",
          "name": "role",
          "type": "bytes32"
        },
        {
          "internalType": "address",
          "name": "account",
          "type": "address"
        }
      ],
      "name": "hasRole",
      "outputs": [
        {
          "internalType": "bool",
          "name": "",
          "type": "bool"
        }
      ],
      "stateMutability": "view",
      "type": "function",
      "constant": true
    },
    {
      "inputs": [
        {
          "internalType": "address",
          "name": "owner",
          "type": "address"
        },
        {
          "internalType": "address",
          "name": "operator",
          "type": "address"
        }
      ],
      "name": "isApprovedForAll",
      "outputs": [
        {
          "internalType": "bool",
          "name": "",
          "type": "bool"
        }
      ],
      "stateMutability": "view",
      "type": "function",
      "constant": true
    },
    {
      "inputs": [
        {
          "internalType": "address",
          "name": "to",
          "type": "address"
        }
      ],
      "name": "mint",
      "outputs": [],
      "stateMutability": "nonpayable",
      "type": "function"
    },
    {
      "inputs": [],
      "name": "name",
      "outputs": [
        {
          "internalType": "string",
          "name": "",
          "type": "string"
        }
      ],
      "stateMutability": "view",
      "type": "function",
      "constant": true
    },
    {
      "inputs": [
        {
          "internalType": "uint256",
          "name": "tokenId",
          "type": "uint256"
        }
      ],
      "name": "ownerOf",
      "outputs": [
        {
          "internalType": "address",
          "name": "",
          "type": "address"
        }
      ],
      "stateMutability": "view",
      "type": "function",
      "constant": true
    },
    {
      "inputs": [],
      "name": "pause",
      "outputs": [],
      "stateMutability": "nonpayable",
      "type": "function"
    },
    {
      "inputs": [],
      "name": "paused",
      "outputs": [
        {
          "internalType": "bool",
          "name": "",
          "type": "bool"
        }
      ],
      "stateMutability": "view",
      "type": "function",
      "constant": true
    },
    {
      "inputs": [
        {
          "internalType": "bytes32",
          "name": "role",
          "type": "bytes32"
        },
        {
          "internalType": "address",
          "name": "account",
          "type": "address"
        }
      ],
      "name": "renounceRole",
      "outputs": [],
      "stateMutability": "nonpayable",
      "type": "function"
    },
    {
      "inputs": [
        {
          "internalType": "bytes32",
          "name": "role",
          "type": "bytes32"
        },
        {
          "internalType": "address",
          "name": "account",
          "type": "address"
        }
      ],
      "name": "revokeRole",
      "outputs": [],
      "stateMutability": "nonpayable",
      "type": "function"
    },
    {
      "inputs": [
        {
          "internalType": "address",
          "name": "from",
          "type": "address"
        },
        {
          "internalType": "address",
          "name": "to",
          "type": "address"
        },
        {
          "internalType": "uint256",
          "name": "tokenId",
          "type": "uint256"
        }
      ],
      "name": "safeTransferFrom",
      "outputs": [],
      "stateMutability": "nonpayable",
      "type": "function"
    },
    {
      "inputs": [
        {
          "internalType": "address",
          "name": "from",
          "type": "address"
        },
        {
          "internalType": "address",
          "name": "to",
          "type": "address"
        },
        {
          "internalType": "uint256",
          "name": "tokenId",
          "type": "uint256"
        },
        {
          "internalType": "bytes",
          "name": "_data",
          "type": "bytes"
        }
      ],
      "name": "safeTransferFrom",
      "outputs": [],
      "stateMutability": "nonpayable",
      "type": "function"
    },
    {
      "inputs": [
        {
          "internalType": "address",
          "name": "operator",
          "type": "address"
        },
        {
          "internalType": "bool",
          "name": "approved",
          "type": "bool"
        }
      ],
      "name": "setApprovalForAll",
      "outputs": [],
      "stateMutability": "nonpayable",
      "type": "function"
    },
    {
      "inputs": [],
      "name": "symbol",
      "outputs": [
        {
          "internalType": "string",
          "name": "",
          "type": "string"
        }
      ],
      "stateMutability": "view",
      "type": "function",
      "constant": true
    },
    {
      "inputs": [
        {
          "internalType": "uint256",
          "name": "index",
          "type": "uint256"
        }
      ],
      "name": "tokenByIndex",
      "outputs": [
        {
          "internalType": "uint256",
          "name": "",
          "type": "uint256"
        }
      ],
      "stateMutability": "view",
      "type": "function",
      "constant": true
    },
    {
      "inputs": [
        {
          "internalType": "address",
          "name": "owner",
          "type": "address"
        },
        {
          "internalType": "uint256",
          "name": "index",
          "type": "uint256"
        }
      ],
      "name": "tokenOfOwnerByIndex",
      "outputs": [
        {
          "internalType": "uint256",
          "name": "",
          "type": "uint256"
        }
      ],
      "stateMutability": "view",
      "type": "function",
      "constant": true
    },
    {
      "inputs": [],
      "name": "totalSupply",
      "outputs": [
        {
          "internalType": "uint256",
          "name": "",
          "type": "uint256"
        }
      ],
      "stateMutability": "view",
      "type": "function",
      "constant": true
    },
    {
      "inputs": [
        {
          "internalType": "address",
          "name": "from",
          "type": "address"
        },
        {
          "internalType": "address",
          "name": "to",
          "type": "address"
        },
        {
          "internalType": "uint256",
          "name": "tokenId",
          "type": "uint256"
        }
      ],
      "name": "transferFrom",
      "outputs": [],
      "stateMutability": "nonpayable",
      "type": "function"
    },
    {
      "inputs": [],
      "name": "unpause",
      "outputs": [],
      "stateMutability": "nonpayable",
      "type": "function"
    },
    {
      "inputs": [
        {
          "internalType": "address",
          "name": "owner",
          "type": "address"
        },
        {
          "internalType": "string",
          "name": "metadataURI",
          "type": "string"
        }
      ],
      "name": "mintToken",
      "outputs": [
        {
          "internalType": "uint256",
          "name": "",
          "type": "uint256"
        }
      ],
      "stateMutability": "nonpayable",
      "type": "function"
    },
    {
      "inputs": [
        {
          "internalType": "bytes4",
          "name": "interfaceId",
          "type": "bytes4"
        }
      ],
      "name": "supportsInterface",
      "outputs": [
        {
          "internalType": "bool",
          "name": "",
          "type": "bool"
        }
      ],
      "stateMutability": "view",
      "type": "function",
      "constant": true
    },
    {
      "inputs": [
        {
          "internalType": "uint256",
          "name": "tokenId",
          "type": "uint256"
        }
      ],
      "name": "tokenURI",
      "outputs": [
        {
          "internalType": "string",
          "name": "",
          "type": "string"
        }
      ],
      "stateMutability": "view",
      "type": "function",
      "constant": true
    }
  ],
  "bytecode": "0x60806040523480156200001157600080fd5b506040516200314d3803806200314d833981016040819052620000349162000428565b81816040518060400160405280600781526020017f697066733a2f2f000000000000000000000000000000000000000000000000008152508282816002908051906020019062000086929190620002cf565b5080516200009c906003906020840190620002cf565b5050600c805460ff19169055508051620000be90600e906020840190620002cf565b50620000d56000620000cf6200013e565b62000142565b620001047f9f2df0fed2c77648de5860a4cc508cd0818c85b8b8a1ab4ceeef8d981c8956a6620000cf6200013e565b620001337f65d7a28e3265b37a6474929f336521b332c1681b933f6cb9f3376673440d862a620000cf6200013e565b505050505062000514565b3390565b6200014e828262000152565b5050565b6200016982826200019560201b62000a851760201c565b60008281526001602090815260409091206200019091839062000b0a6200021f821b17901c565b505050565b620001a182826200023f565b6200014e576000828152602081815260408083206001600160a01b03851684529091529020805460ff19166001179055620001db6200013e565b6001600160a01b0316816001600160a01b0316837f2f8788117e7eff1d82e926ec794901d17c78024a50270940304540a733656f0d60405160405180910390a45050565b600062000236836001600160a01b03841662000268565b90505b92915050565b6000918252602082815260408084206001600160a01b0393909316845291905290205460ff1690565b6000620002768383620002b7565b620002ae5750815460018181018455600084815260208082209093018490558454848252828601909352604090209190915562000239565b50600062000239565b60009081526001919091016020526040902054151590565b828054620002dd906200048f565b90600052602060002090601f0160209004810192826200030157600085556200034c565b82601f106200031c57805160ff19168380011785556200034c565b828001600101855582156200034c579182015b828111156200034c5782518255916020019190600101906200032f565b506200035a9291506200035e565b5090565b5b808211156200035a57600081556001016200035f565b600082601f83011262000386578081fd5b81516001600160401b0380821115620003a357620003a3620004e5565b604051601f8301601f19908116603f01168101908282118183101715620003ce57620003ce620004e5565b81604052838152602092508683858801011115620003ea578485fd5b8491505b838210156200040d5785820183015181830184015290820190620003ee565b838211156200041e57848385830101525b9695505050505050565b600080604083850312156200043b578182fd5b82516001600160401b038082111562000452578384fd5b620004608683870162000375565b9350602085015191508082111562000476578283fd5b50620004858582860162000375565b9150509250929050565b600281046001821680620004a457607f821691505b60208210811415620004df577f4e487b7100000000000000000000000000000000000000000000000000000000600052602260045260246000fd5b50919050565b7f4e487b7100000000000000000000000000000000000000000000000000000000600052604160045260246000fd5b612c2980620005246000396000f3fe608060405234801561001057600080fd5b50600436106101f05760003560e01c80636352211e1161010f578063a22cb465116100a2578063d539139311610071578063d5391393146103fb578063d547741f14610403578063e63ab1e914610416578063e985e9c51461041e576101f0565b8063a22cb465146103af578063b88d4fde146103c2578063c87b56dd146103d5578063ca15c873146103e8576101f0565b80639010d07c116100de5780639010d07c1461037957806391d148541461038c57806395d89b411461039f578063a217fddf146103a7576101f0565b80636352211e146103385780636a6278421461034b57806370a082311461035e5780638456cb5914610371576101f0565b80632f745c591161018757806342842e0e1161015657806342842e0e146102f757806342966c681461030a5780634f6ccce71461031d5780635c975abb14610330576101f0565b80632f745c59146102b657806336568abe146102c95780633d02d0c9146102dc5780633f4ba83a146102ef576101f0565b806318160ddd116101c357806318160ddd1461026857806323b872dd1461027d578063248a9ca3146102905780632f2ff15d146102a3576101f0565b806301ffc9a7146101f557806306fdde031461021e578063081812fc14610233578063095ea7b314610253575b600080fd5b610208610203366004612160565b610431565b60405161021591906122b9565b60405180910390f35b610226610444565b60405161021591906122cd565b610246610241366004612105565b6104d6565b6040516102159190612268565b6102666102613660046120dc565b610522565b005b6102706105ba565b60405161021591906122c4565b61026661028b366004611f8f565b6105c0565b61027061029e366004612105565b6105f8565b6102666102b136600461211d565b61060d565b6102706102c43660046120dc565b610629565b6102666102d736600461211d565b61067e565b6102706102ea36600461207d565b6106c4565b6102666106f9565b610266610305366004611f8f565b61074b565b610266610318366004612105565b610766565b61027061032b366004612105565b610799565b6102086107f4565b610246610346366004612105565b6107fd565b610266610359366004611f43565b610832565b61027061036c366004611f43565b610897565b6102666108db565b61024661038736600461213f565b61092b565b61020861039a36600461211d565b610943565b61022661096c565b61027061097b565b6102666103bd366004612043565b610980565b6102666103d0366004611fca565b610992565b6102266103e3366004612105565b6109d1565b6102706103f6366004612105565b6109dc565b6102706109f3565b61026661041136600461211d565b610a17565b610270610a33565b61020861042c366004611f5d565b610a57565b600061043c82610b1f565b90505b919050565b60606002805461045390612b31565b80601f016020809104026020016040519081016040528092919081815260200182805461047f90612b31565b80156104cc5780601f106104a1576101008083540402835291602001916104cc565b820191906000526020600020905b8154815290600101906020018083116104af57829003601f168201915b5050505050905090565b60006104e182610b2a565b6105065760405162461bcd60e51b81526004016104fd906127b9565b60405180910390fd5b506000908152600660205260409020546001600160a01b031690565b600061052d826107fd565b9050806001600160a01b0316836001600160a01b031614156105615760405162461bcd60e51b81526004016104fd90612854565b806001600160a01b0316610573610b47565b6001600160a01b0316148061058f575061058f8161042c610b47565b6105ab5760405162461bcd60e51b81526004016104fd906125f5565b6105b58383610b4b565b505050565b600a5490565b6105d16105cb610b47565b82610bb9565b6105ed5760405162461bcd60e51b81526004016104fd90612895565b6105b5838383610c3e565b60009081526020819052604090206001015490565b610616826105f8565b61061f81610d71565b6105b58383610d82565b600061063483610897565b82106106525760405162461bcd60e51b81526004016104fd9061238e565b506001600160a01b03821660009081526008602090815260408083208484529091529020545b92915050565b610686610b47565b6001600160a01b0316816001600160a01b0316146106b65760405162461bcd60e51b81526004016104fd90612a3d565b6106c08282610da4565b5050565b60006106d06010610dc6565b60006106dc6010610dcf565b90506106e88482610dd3565b6106f28184610ded565b9392505050565b6107257f65d7a28e3265b37a6474929f336521b332c1681b933f6cb9f3376673440d862a61039a610b47565b6107415760405162461bcd60e51b81526004016104fd906129df565b610749610e31565b565b6105b583838360405180602001604052806000815250610992565b6107716105cb610b47565b61078d5760405162461bcd60e51b81526004016104fd9061298f565b61079681610e9f565b50565b60006107a36105ba565b82106107c15760405162461bcd60e51b81526004016104fd906128e6565b600a82815481106107e257634e487b7160e01b600052603260045260246000fd5b90600052602060002001549050919050565b600c5460ff1690565b6000818152600460205260408120546001600160a01b03168061043c5760405162461bcd60e51b81526004016104fd9061269c565b61085e7f9f2df0fed2c77648de5860a4cc508cd0818c85b8b8a1ab4ceeef8d981c8956a661039a610b47565b61087a5760405162461bcd60e51b81526004016104fd90612932565b61088d81610888600d610dcf565b610ea8565b610796600d610dc6565b60006001600160a01b0382166108bf5760405162461bcd60e51b81526004016104fd90612652565b506001600160a01b031660009081526005602052604090205490565b6109077f65d7a28e3265b37a6474929f336521b332c1681b933f6cb9f3376673440d862a61039a610b47565b6109235760405162461bcd60e51b81526004016104fd906124a7565b610749610f8f565b60008281526001602052604081206106f29083610fea565b6000918252602082815260408084206001600160a01b0393909316845291905290205460ff1690565b60606003805461045390612b31565b600081565b6106c061098b610b47565b8383610ff6565b6109a361099d610b47565b83610bb9565b6109bf5760405162461bcd60e51b81526004016104fd90612895565b6109cb84848484611099565b50505050565b606061043c826110cc565b600081815260016020526040812061043c906111e5565b7f9f2df0fed2c77648de5860a4cc508cd0818c85b8b8a1ab4ceeef8d981c8956a681565b610a20826105f8565b610a2981610d71565b6105b58383610da4565b7f65d7a28e3265b37a6474929f336521b332c1681b933f6cb9f3376673440d862a81565b6001600160a01b03918216600090815260076020908152604080832093909416825291909152205460ff1690565b610a8f8282610943565b6106c0576000828152602081815260408083206001600160a01b03851684529091529020805460ff19166001179055610ac6610b47565b6001600160a01b0316816001600160a01b0316837f2f8788117e7eff1d82e926ec794901d17c78024a50270940304540a733656f0d60405160405180910390a45050565b60006106f2836001600160a01b0384166111f0565b600061043c8261123a565b6000908152600460205260409020546001600160a01b0316151590565b3390565b600081815260066020526040902080546001600160a01b0319166001600160a01b0384169081179091558190610b80826107fd565b6001600160a01b03167f8c5be1e5ebec7d5bd14f71427d1e84f3dd0314c0f7b2291e5b200ac8c7c3b92560405160405180910390a45050565b6000610bc482610b2a565b610be05760405162461bcd60e51b81526004016104fd9061257f565b6000610beb836107fd565b9050806001600160a01b0316846001600160a01b03161480610c125750610c128185610a57565b80610c365750836001600160a01b0316610c2b846104d6565b6001600160a01b0316145b949350505050565b826001600160a01b0316610c51826107fd565b6001600160a01b031614610c775760405162461bcd60e51b81526004016104fd9061242b565b6001600160a01b038216610c9d5760405162461bcd60e51b81526004016104fd90612504565b610ca883838361125f565b610cb3600082610b4b565b6001600160a01b0383166000908152600560205260408120805460019290610cdc908490612ad7565b90915550506001600160a01b0382166000908152600560205260408120805460019290610d0a908490612a8c565b909155505060008181526004602052604080822080546001600160a01b0319166001600160a01b0386811691821790925591518493918716917fddf252ad1be2c89b69c2b068fc378daa952ba7f163c4a11628f55a4df523b3ef91a46105b58383836105b5565b61079681610d7d610b47565b61126a565b610d8c8282610a85565b60008281526001602052604090206105b59082610b0a565b610dae82826112ce565b60008281526001602052604090206105b59082611351565b80546001019055565b5490565b6106c0828260405180602001604052806000815250611366565b610df682610b2a565b610e125760405162461bcd60e51b81526004016104fd906126e5565b6000828152600f6020908152604090912082516105b592840190611de5565b610e396107f4565b610e555760405162461bcd60e51b81526004016104fd90612360565b600c805460ff191690557f5db9ee0a495bf2e6ff9c91a7834c1ba4fdd244a5e8aa4e537bd38aeae4b073aa610e88610b47565b604051610e959190612268565b60405180910390a1565b61079681611399565b6001600160a01b038216610ece5760405162461bcd60e51b81526004016104fd90612733565b610ed781610b2a565b15610ef45760405162461bcd60e51b81526004016104fd90612470565b610f006000838361125f565b6001600160a01b0382166000908152600560205260408120805460019290610f29908490612a8c565b909155505060008181526004602052604080822080546001600160a01b0319166001600160a01b03861690811790915590518392907fddf252ad1be2c89b69c2b068fc378daa952ba7f163c4a11628f55a4df523b3ef908290a46106c0600083836105b5565b610f976107f4565b15610fb45760405162461bcd60e51b81526004016104fd906125cb565b600c805460ff191660011790557f62e78cea01bee320cd4e420270b5ea74000d11b0c9f74754ebdbfc544b05a258610e88610b47565b60006106f283836113d9565b816001600160a01b0316836001600160a01b031614156110285760405162461bcd60e51b81526004016104fd90612548565b6001600160a01b0383811660008181526007602090815260408083209487168084529490915290819020805460ff1916851515179055517f17307eab39ab6107e8899845ad3d59bd9653f200f220920489ca2b5937696c319061108c9085906122b9565b60405180910390a3505050565b6110a4848484610c3e565b6110b084848484611411565b6109cb5760405162461bcd60e51b81526004016104fd906123d9565b60606110d782610b2a565b6110f35760405162461bcd60e51b81526004016104fd90612768565b6000828152600f60205260408120805461110c90612b31565b80601f016020809104026020016040519081016040528092919081815260200182805461113890612b31565b80156111855780601f1061115a57610100808354040283529160200191611185565b820191906000526020600020905b81548152906001019060200180831161116857829003601f168201915b50505050509050600061119661152c565b90508051600014156111aa5750905061043f565b8151156111dc5780826040516020016111c49291906121c4565b6040516020818303038152906040529250505061043f565b610c368461153e565b600061043c82610dcf565b60006111fc83836115c0565b61123257508154600181810184556000848152602080822090930184905584548482528286019093526040902091909155610678565b506000610678565b60006001600160e01b0319821663780e9d6360e01b148061043c575061043c826115d8565b6105b5838383611618565b6112748282610943565b6106c05761128c816001600160a01b03166014611623565b611297836020611623565b6040516020016112a89291906121f3565b60408051601f198184030181529082905262461bcd60e51b82526104fd916004016122cd565b6112d88282610943565b156106c0576000828152602081815260408083206001600160a01b03851684529091529020805460ff1916905561130d610b47565b6001600160a01b0316816001600160a01b0316837ff6391f5c32d9c69d2a47ea670b442974b53935d1edc7fd64eb21e047a839171b60405160405180910390a45050565b60006106f2836001600160a01b0384166117d5565b6113708383610ea8565b61137d6000848484611411565b6105b55760405162461bcd60e51b81526004016104fd906123d9565b6113a2816118f2565b6000818152600f6020526040902080546113bb90612b31565b159050610796576000818152600f6020526040812061079691611e69565b60008260000182815481106113fe57634e487b7160e01b600052603260045260246000fd5b9060005260206000200154905092915050565b6000611425846001600160a01b03166119a1565b1561152157836001600160a01b031663150b7a02611441610b47565b8786866040518563ffffffff1660e01b8152600401611463949392919061227c565b602060405180830381600087803b15801561147d57600080fd5b505af19250505080156114ad575060408051601f3d908101601f191682019092526114aa9181019061217c565b60015b611507573d8080156114db576040519150601f19603f3d011682016040523d82523d6000602084013e6114e0565b606091505b5080516114ff5760405162461bcd60e51b81526004016104fd906123d9565b805181602001fd5b6001600160e01b031916630a85bd0160e11b149050610c36565b506001949350505050565b60408051602081019091526000815290565b606061154982610b2a565b6115655760405162461bcd60e51b81526004016104fd90612805565b600061156f61152c565b9050600081511161158f57604051806020016040528060008152506106f2565b80611599846119b0565b6040516020016115aa9291906121c4565b6040516020818303038152906040529392505050565b60009081526001919091016020526040902054151590565b60006001600160e01b031982166380ac58cd60e01b148061160957506001600160e01b03198216635b5e139f60e01b145b8061043c575061043c82611acb565b6105b5838383611af0565b60606000611632836002612ab8565b61163d906002612a8c565b67ffffffffffffffff81111561166357634e487b7160e01b600052604160045260246000fd5b6040519080825280601f01601f19166020018201604052801561168d576020820181803683370190505b509050600360fc1b816000815181106116b657634e487b7160e01b600052603260045260246000fd5b60200101906001600160f81b031916908160001a905350600f60fb1b816001815181106116f357634e487b7160e01b600052603260045260246000fd5b60200101906001600160f81b031916908160001a9053506000611717846002612ab8565b611722906001612a8c565b90505b60018111156117b6576f181899199a1a9b1b9c1cb0b131b232b360811b85600f166010811061176457634e487b7160e01b600052603260045260246000fd5b1a60f81b82828151811061178857634e487b7160e01b600052603260045260246000fd5b60200101906001600160f81b031916908160001a90535060049490941c936117af81612b1a565b9050611725565b5083156106f25760405162461bcd60e51b81526004016104fd906122e0565b600081815260018301602052604081205480156118e85760006117f9600183612ad7565b855490915060009061180d90600190612ad7565b905081811461188e57600086600001828154811061183b57634e487b7160e01b600052603260045260246000fd5b906000526020600020015490508087600001848154811061186c57634e487b7160e01b600052603260045260246000fd5b6000918252602080832090910192909255918252600188019052604090208390555b85548690806118ad57634e487b7160e01b600052603160045260246000fd5b600190038181906000526020600020016000905590558560010160008681526020019081526020016000206000905560019350505050610678565b6000915050610678565b60006118fd826107fd565b905061190b8160008461125f565b611916600083610b4b565b6001600160a01b038116600090815260056020526040812080546001929061193f908490612ad7565b909155505060008281526004602052604080822080546001600160a01b0319169055518391906001600160a01b038416907fddf252ad1be2c89b69c2b068fc378daa952ba7f163c4a11628f55a4df523b3ef908390a46106c0816000846105b5565b6001600160a01b03163b151590565b6060816119d557506040805180820190915260018152600360fc1b602082015261043f565b8160005b81156119ff57806119e981612b6c565b91506119f89050600a83612aa4565b91506119d9565b60008167ffffffffffffffff811115611a2857634e487b7160e01b600052604160045260246000fd5b6040519080825280601f01601f191660200182016040528015611a52576020820181803683370190505b5090505b8415610c3657611a67600183612ad7565b9150611a74600a86612b87565b611a7f906030612a8c565b60f81b818381518110611aa257634e487b7160e01b600052603260045260246000fd5b60200101906001600160f81b031916908160001a905350611ac4600a86612aa4565b9450611a56565b60006001600160e01b03198216635a05180f60e01b148061043c575061043c82611b20565b611afb838383611b45565b611b036107f4565b156105b55760405162461bcd60e51b81526004016104fd90612315565b60006001600160e01b03198216637965db0b60e01b148061043c575061043c82611bce565b611b508383836105b5565b6001600160a01b038316611b6c57611b6781611be7565b611b8f565b816001600160a01b0316836001600160a01b031614611b8f57611b8f8382611c2b565b6001600160a01b038216611bab57611ba681611cc8565b6105b5565b826001600160a01b0316826001600160a01b0316146105b5576105b58282611da1565b6001600160e01b031981166301ffc9a760e01b14919050565b600a80546000838152600b60205260408120829055600182018355919091527fc65a7bb8d6351c1cf70c95a316cc6a92839c986682d98bc35f958f4883f9d2a80155565b60006001611c3884610897565b611c429190612ad7565b600083815260096020526040902054909150808214611c95576001600160a01b03841660009081526008602090815260408083208584528252808320548484528184208190558352600990915290208190555b5060009182526009602090815260408084208490556001600160a01b039094168352600881528383209183525290812055565b600a54600090611cda90600190612ad7565b6000838152600b6020526040812054600a8054939450909284908110611d1057634e487b7160e01b600052603260045260246000fd5b9060005260206000200154905080600a8381548110611d3f57634e487b7160e01b600052603260045260246000fd5b6000918252602080832090910192909255828152600b9091526040808220849055858252812055600a805480611d8557634e487b7160e01b600052603160045260246000fd5b6001900381819060005260206000200160009055905550505050565b6000611dac83610897565b6001600160a01b039093166000908152600860209081526040808320868452825280832085905593825260099052919091209190915550565b828054611df190612b31565b90600052602060002090601f016020900481019282611e135760008555611e59565b82601f10611e2c57805160ff1916838001178555611e59565b82800160010185558215611e59579182015b82811115611e59578251825591602001919060010190611e3e565b50611e65929150611ea1565b5090565b508054611e7590612b31565b6000825580601f10611e875750610796565b601f01602090049060005260206000209081019061079691905b5b80821115611e655760008155600101611ea2565b600067ffffffffffffffff80841115611ed157611ed1612bc7565b604051601f8501601f19908116603f01168101908282118183101715611ef957611ef9612bc7565b81604052809350858152868686011115611f1257600080fd5b858560208301376000602087830101525050509392505050565b80356001600160a01b038116811461043f57600080fd5b600060208284031215611f54578081fd5b6106f282611f2c565b60008060408385031215611f6f578081fd5b611f7883611f2c565b9150611f8660208401611f2c565b90509250929050565b600080600060608486031215611fa3578081fd5b611fac84611f2c565b9250611fba60208501611f2c565b9150604084013590509250925092565b60008060008060808587031215611fdf578081fd5b611fe885611f2c565b9350611ff660208601611f2c565b925060408501359150606085013567ffffffffffffffff811115612018578182fd5b8501601f81018713612028578182fd5b61203787823560208401611eb6565b91505092959194509250565b60008060408385031215612055578182fd5b61205e83611f2c565b915060208301358015158114612072578182fd5b809150509250929050565b6000806040838503121561208f578182fd5b61209883611f2c565b9150602083013567ffffffffffffffff8111156120b3578182fd5b8301601f810185136120c3578182fd5b6120d285823560208401611eb6565b9150509250929050565b600080604083850312156120ee578182fd5b6120f783611f2c565b946020939093013593505050565b600060208284031215612116578081fd5b5035919050565b6000806040838503121561212f578182fd5b82359150611f8660208401611f2c565b60008060408385031215612151578182fd5b50508035926020909101359150565b600060208284031215612171578081fd5b81356106f281612bdd565b60006020828403121561218d578081fd5b81516106f281612bdd565b600081518084526121b0816020860160208601612aee565b601f01601f19169290920160200192915050565b600083516121d6818460208801612aee565b8351908301906121ea818360208801612aee565b01949350505050565b60007f416363657373436f6e74726f6c3a206163636f756e74200000000000000000008252835161222b816017850160208801612aee565b7001034b99036b4b9b9b4b733903937b6329607d1b601791840191820152835161225c816028840160208801612aee565b01602801949350505050565b6001600160a01b0391909116815260200190565b6001600160a01b03858116825284166020820152604081018390526080606082018190526000906122af90830184612198565b9695505050505050565b901515815260200190565b90815260200190565b6000602082526106f26020830184612198565b6020808252818101527f537472696e67733a20686578206c656e67746820696e73756666696369656e74604082015260600190565b6020808252602b908201527f4552433732315061757361626c653a20746f6b656e207472616e73666572207760408201526a1a1a5b19481c185d5cd95960aa1b606082015260800190565b60208082526014908201527314185d5cd8589b194e881b9bdd081c185d5cd95960621b604082015260600190565b6020808252602b908201527f455243373231456e756d657261626c653a206f776e657220696e646578206f7560408201526a74206f6620626f756e647360a81b606082015260800190565b60208082526032908201527f4552433732313a207472616e7366657220746f206e6f6e20455243373231526560408201527131b2b4bb32b91034b6b83632b6b2b73a32b960711b606082015260800190565b60208082526025908201527f4552433732313a207472616e736665722066726f6d20696e636f72726563742060408201526437bbb732b960d91b606082015260800190565b6020808252601c908201527f4552433732313a20746f6b656e20616c7265616479206d696e74656400000000604082015260600190565b6020808252603e908201527f4552433732315072657365744d696e7465725061757365724175746f49643a2060408201527f6d75737420686176652070617573657220726f6c6520746f2070617573650000606082015260800190565b60208082526024908201527f4552433732313a207472616e7366657220746f20746865207a65726f206164646040820152637265737360e01b606082015260800190565b60208082526019908201527f4552433732313a20617070726f766520746f2063616c6c657200000000000000604082015260600190565b6020808252602c908201527f4552433732313a206f70657261746f7220717565727920666f72206e6f6e657860408201526b34b9ba32b73a103a37b5b2b760a11b606082015260800190565b60208082526010908201526f14185d5cd8589b194e881c185d5cd95960821b604082015260600190565b60208082526038908201527f4552433732313a20617070726f76652063616c6c6572206973206e6f74206f7760408201527f6e6572206e6f7220617070726f76656420666f7220616c6c0000000000000000606082015260800190565b6020808252602a908201527f4552433732313a2062616c616e636520717565727920666f7220746865207a65604082015269726f206164647265737360b01b606082015260800190565b60208082526029908201527f4552433732313a206f776e657220717565727920666f72206e6f6e657869737460408201526832b73a103a37b5b2b760b91b606082015260800190565b6020808252602e908201527f45524337323155524953746f726167653a2055524920736574206f66206e6f6e60408201526d32bc34b9ba32b73a103a37b5b2b760911b606082015260800190565b6020808252818101527f4552433732313a206d696e7420746f20746865207a65726f2061646472657373604082015260600190565b60208082526031908201527f45524337323155524953746f726167653a2055524920717565727920666f72206040820152703737b732bc34b9ba32b73a103a37b5b2b760791b606082015260800190565b6020808252602c908201527f4552433732313a20617070726f76656420717565727920666f72206e6f6e657860408201526b34b9ba32b73a103a37b5b2b760a11b606082015260800190565b6020808252602f908201527f4552433732314d657461646174613a2055524920717565727920666f72206e6f60408201526e3732bc34b9ba32b73a103a37b5b2b760891b606082015260800190565b60208082526021908201527f4552433732313a20617070726f76616c20746f2063757272656e74206f776e656040820152603960f91b606082015260800190565b60208082526031908201527f4552433732313a207472616e736665722063616c6c6572206973206e6f74206f6040820152701ddb995c881b9bdc88185c1c1c9bdd9959607a1b606082015260800190565b6020808252602c908201527f455243373231456e756d657261626c653a20676c6f62616c20696e646578206f60408201526b7574206f6620626f756e647360a01b606082015260800190565b6020808252603d908201527f4552433732315072657365744d696e7465725061757365724175746f49643a2060408201527f6d7573742068617665206d696e74657220726f6c6520746f206d696e74000000606082015260800190565b60208082526030908201527f4552433732314275726e61626c653a2063616c6c6572206973206e6f74206f7760408201526f1b995c881b9bdc88185c1c1c9bdd995960821b606082015260800190565b602080825260409082018190527f4552433732315072657365744d696e7465725061757365724175746f49643a20908201527f6d75737420686176652070617573657220726f6c6520746f20756e7061757365606082015260800190565b6020808252602f908201527f416363657373436f6e74726f6c3a2063616e206f6e6c792072656e6f756e636560408201526e103937b632b9903337b91039b2b63360891b606082015260800190565b60008219821115612a9f57612a9f612b9b565b500190565b600082612ab357612ab3612bb1565b500490565b6000816000190483118215151615612ad257612ad2612b9b565b500290565b600082821015612ae957612ae9612b9b565b500390565b60005b83811015612b09578181015183820152602001612af1565b838111156109cb5750506000910152565b600081612b2957612b29612b9b565b506000190190565b600281046001821680612b4557607f821691505b60208210811415612b6657634e487b7160e01b600052602260045260246000fd5b50919050565b6000600019821415612b8057612b80612b9b565b5060010190565b600082612b9657612b96612bb1565b500690565b634e487b7160e01b600052601160045260246000fd5b634e487b7160e01b600052601260045260246000fd5b634e487b7160e01b600052604160045260246000fd5b6001600160e01b03198116811461079657600080fdfea26469706673582212203f5136d9be9ff24a235dea2e5a2ef55e72c4b45adc6b275f172bf8795e71995464736f6c63430008010033",
  "immutableReferences": {},
  "source": "//SPDX-License-Identifier: MIT\npragma solidity ^0.8.1;\n\nimport \"hardhat/console.sol\";\nimport \"@openzeppelin/contracts/token/ERC721/presets/ERC721PresetMinterPauserAutoId.sol\";\nimport \"@openzeppelin/contracts/token/ERC721/extensions/ERC721URIStorage.sol\";\n\ncontract MintyPreset is ERC721PresetMinterPauserAutoId, ERC721URIStorage {\n\n    using Counters for Counters.Counter;\n    Counters.Counter private _tokenIds;\n\n    constructor(string memory tokenName, string memory symbol) ERC721PresetMinterPauserAutoId(tokenName, symbol, \"ipfs://\") {}\n\n    // function mint(address owner) public override {\n    //     _tokenIds.increment();\n    //     uint256 id = _tokenIds.current();\n    //     super._safeMint(owner, id);\n    // }\n\n    function mintToken(address owner, string memory metadataURI) public returns (uint256) {\n        _tokenIds.increment();\n\n        uint256 id = _tokenIds.current();\n        super._safeMint(owner, id);\n        super._setTokenURI(id, metadataURI);\n\n        return id;\n    }\n\n    function _baseURI() internal view virtual override(ERC721, ERC721PresetMinterPauserAutoId) returns (string memory) {\n        return \"\";\n    }\n\n    function _beforeTokenTransfer(address from, address to, uint256 tokenId) internal virtual override(ERC721, ERC721PresetMinterPauserAutoId) {\n        super._beforeTokenTransfer(from, to, tokenId);\n    }\n\n    /**\n     * @dev See {IERC165-supportsInterface}.\n     */\n    function supportsInterface(bytes4 interfaceId) public view virtual override(ERC721, ERC721PresetMinterPauserAutoId) returns (bool) {\n        return super.supportsInterface(interfaceId);\n    }\n\n    function _burn(uint256 tokenId) internal virtual override(ERC721, ERC721URIStorage) {\n        super._burn(tokenId);\n    }\n\n    function tokenURI(uint256 tokenId) public view virtual override(ERC721, ERC721URIStorage) returns (string memory) {\n        return super.tokenURI(tokenId);\n    }\n\n\n}\n",
  "sourcePath": "/home/skeetzo/Projects/minty/contracts/MintyPreset.sol",
  "compiler": {
    "name": "solc",
    "version": "0.8.1+commit.df193b15.Emscripten.clang"
  },
  "schemaVersion": "3.4.8",
  "updatedAt": "2022-07-22T00:09:03.308Z",
  "networkType": "ethereum",
  "devdoc": {
    "kind": "dev",
    "methods": {
      "approve(address,uint256)": {
        "details": "See {IERC721-approve}."
      },
      "balanceOf(address)": {
        "details": "See {IERC721-balanceOf}."
      },
      "burn(uint256)": {
        "details": "Burns `tokenId`. See {ERC721-_burn}. Requirements: - The caller must own `tokenId` or be an approved operator."
      },
      "getApproved(uint256)": {
        "details": "See {IERC721-getApproved}."
      },
      "getRoleAdmin(bytes32)": {
        "details": "Returns the admin role that controls `role`. See {grantRole} and {revokeRole}. To change a role's admin, use {_setRoleAdmin}."
      },
      "getRoleMember(bytes32,uint256)": {
        "details": "Returns one of the accounts that have `role`. `index` must be a value between 0 and {getRoleMemberCount}, non-inclusive. Role bearers are not sorted in any particular way, and their ordering may change at any point. WARNING: When using {getRoleMember} and {getRoleMemberCount}, make sure you perform all queries on the same block. See the following https://forum.openzeppelin.com/t/iterating-over-elements-on-enumerableset-in-openzeppelin-contracts/2296[forum post] for more information."
      },
      "getRoleMemberCount(bytes32)": {
        "details": "Returns the number of accounts that have `role`. Can be used together with {getRoleMember} to enumerate all bearers of a role."
      },
      "grantRole(bytes32,address)": {
        "details": "Grants `role` to `account`. If `account` had not been already granted `role`, emits a {RoleGranted} event. Requirements: - the caller must have ``role``'s admin role."
      },
      "hasRole(bytes32,address)": {
        "details": "Returns `true` if `account` has been granted `role`."
      },
      "isApprovedForAll(address,address)": {
        "details": "See {IERC721-isApprovedForAll}."
      },
      "mint(address)": {
        "details": "Creates a new token for `to`. Its token ID will be automatically assigned (and available on the emitted {IERC721-Transfer} event), and the token URI autogenerated based on the base URI passed at construction. See {ERC721-_mint}. Requirements: - the caller must have the `MINTER_ROLE`."
      },
      "name()": {
        "details": "See {IERC721Metadata-name}."
      },
      "ownerOf(uint256)": {
        "details": "See {IERC721-ownerOf}."
      },
      "pause()": {
        "details": "Pauses all token transfers. See {ERC721Pausable} and {Pausable-_pause}. Requirements: - the caller must have the `PAUSER_ROLE`."
      },
      "paused()": {
        "details": "Returns true if the contract is paused, and false otherwise."
      },
      "renounceRole(bytes32,address)": {
        "details": "Revokes `role` from the calling account. Roles are often managed via {grantRole} and {revokeRole}: this function's purpose is to provide a mechanism for accounts to lose their privileges if they are compromised (such as when a trusted device is misplaced). If the calling account had been revoked `role`, emits a {RoleRevoked} event. Requirements: - the caller must be `account`."
      },
      "revokeRole(bytes32,address)": {
        "details": "Revokes `role` from `account`. If `account` had been granted `role`, emits a {RoleRevoked} event. Requirements: - the caller must have ``role``'s admin role."
      },
      "safeTransferFrom(address,address,uint256)": {
        "details": "See {IERC721-safeTransferFrom}."
      },
      "safeTransferFrom(address,address,uint256,bytes)": {
        "details": "See {IERC721-safeTransferFrom}."
      },
      "setApprovalForAll(address,bool)": {
        "details": "See {IERC721-setApprovalForAll}."
      },
      "supportsInterface(bytes4)": {
        "details": "See {IERC165-supportsInterface}."
      },
      "symbol()": {
        "details": "See {IERC721Metadata-symbol}."
      },
      "tokenByIndex(uint256)": {
        "details": "See {IERC721Enumerable-tokenByIndex}."
      },
      "tokenOfOwnerByIndex(address,uint256)": {
        "details": "See {IERC721Enumerable-tokenOfOwnerByIndex}."
      },
      "totalSupply()": {
        "details": "See {IERC721Enumerable-totalSupply}."
      },
      "transferFrom(address,address,uint256)": {
        "details": "See {IERC721-transferFrom}."
      },
      "unpause()": {
        "details": "Unpauses all token transfers. See {ERC721Pausable} and {Pausable-_unpause}. Requirements: - the caller must have the `PAUSER_ROLE`."
      }
    },
    "version": 1
  },
  "userdoc": {
    "kind": "user",
    "methods": {},
    "version": 1
  }
}